S01900004954495F46696E616C5F50726F6A6563742E73726563A6
S11300000C942A000C94B5040C94DE040C9407059B
S11300100C9447000C9447000C9401060C94470080
S11300200C9447000C9447000C94D8050C94AF052D
S11300300C9447000C9447000C9447000C94470020
S11300400C9447000C9447000C9447000C94470010
S11300500C94470011241FBECFE5D8E0DEBFCDBF0E
S113006010E0A0E6B0E0ECECF0E102C005900D92E7
S1130070A03EB107D9F720E0A0EEB0E001C01D9288
S1130080A73FB207E1F70E94BB010C9464080C94EB
S1130090000080E00E94FC03823158F041E066E0F9
S11300A083E00E94360440E067E083E00E94360467
S11300B008958D3058F040E066E083E00E943604F5
S11300C041E067E083E00E943604089540E066E082
S11300D083E00E94360440E067E083E00E94360437
S11300E008958091F4009091F5008093F600909328
S11300F0F30060916000709161000E940C026CE258
S113010071E080E090E00E943005609160007091A1
S11301106100665F7F4F8091F3000E940C026CE2E5
S113012071E080E090E00E9430050895CF930E9432
S11301308A02C82F8D3009F084C02091E3003091E9
S1130140E4008091F4009091F5002817390709F034
S11301506DC00E9484031092F5001092F400109276
S1130160E4001092E3001092E2001092E1008EE6A7
S113017090E00E9491030E948A02C82F8091E100BE
S11301809091E2000597B1F40E9484038CE790E01B
S11301900E94910360E081E00E94880387E890E078
S11301A00E9491031092E2001092E1001092F50077
S11301B01092F400CD3059F41092E2001092E10054
S11301C00E9484031092F5001092F400D4CFCA3A2E
S11301D091F2CC3009F496C08091E1009091E20054
S11301E0892B11F40E9484038AE20E9417038091F0
S11301F0E1009091E20001969093E2008093E10087
S11302008091F4009091F5009C01220F331F880F18
S1130210991F880F991F880F991F820F931F8C0FA6
S1130220911D9093F5008093F400A5CF0E94840360
S11302301092E4001092E3001092E2001092E100A8
S11302406DC08C3099F50E9484032091E3003091B5
S1130250E4008091F4009091F50028173907C9F45F
S11302608091E00081110BC087E990E00E94910326
S113027084EB0E94CF0381E08093E0000EC086EA05
S113028090E00E94910380E00E94CF031092E0006E
S113029004C085EB90E00E9491031092E400109258
S11302A0E3001092E2001092E10038C08A3AB1F102
S11302B08091E1009091E200892B11F40E94840363
S11302C08AE20E9417038091E1009091E200019676
S11302D09093E2008093E1008091E3009091E40028
S11302E09C01220F331F880F991F880F991F880FB5
S11302F0991F820F931F8C0F911D9093E40080939C
S1130300E3000CC00E94840386EC90E00E949103F9
S11303101092E2001092E1000E947100CF910895C2
S1130320609160007091610086EF90E00E94240269
S11303306CE271E080E090E00E9430056091600022
S113034070916100665F7F4F83EF90E00E9424020A
S11303506CE271E080E090E00E9430058091F3004F
S113036090E0982F88272091F600822B9093F50037
S11303708093F4000895CF93DF931F92CDB7DEB737
S113038019820E94F40341E066E083E00E940804BD
S113039041E067E083E00E9408040E945B030E943E
S11303A0430241E065E083E00E9408040E94C60322
S11303B080E00E942A0665E070E0CE0101960E946A
S11303C0240289818C31C9F086ED90E00E9491036A
S11303D08CE1898382ED94E09093F5008093F4009E
S11303E00E94710065E070E089810E940C026CE259
S11303F071E080E090E00E9430050E9490016091DD
S1130400F4007091F50080E090E00E94A7030E9440
S113041096000E944900FBCF1F93CF93DF93C82F10
S1130420D62F172F0E943606812F80650E9457060B
S11304308D2F0E9477068C2F0E9477060E949506C6
S1130440DF91CF911F9108950F931F93CF93DF9363
S11304508C01D62FC72FC0650E9436068C2F0E94B0
S113046057068D2F0E9477060E9446068C2F0E9405
S11304706706C8010E9481060E949506DF91CF910C
S11304801F910F91089541E064E082E00E94080406
S113049041E065E082E00E94080441E066E082E019
S11304A00E94080441E064E082E00E94360441E0D6
S11304B065E082E00E94360441E066E082E00E944A
S11304C0360440E061E080E00E94080440E062E01D
S11304D080E00E94080440E063E080E00E94080499
S11304E040E064E080E00E94080441E061E080E0D4
S11304F00E94360441E062E080E00E94360441E05C
S113050063E080E00E94360441E064E080E00E9401
S1130510360408954F925F926F927F928F929F92CA
S1130520AF92BF92CF92DF92EF92FF920F931F93FD
S1130530CF93DF93CDB7DEB763970FB6F894DEBFE2
S11305400FBECDBF84E0898395E09A8396E09B83B8
S113055091E09C8392E09D8393E09E838F838CE063
S1130560E2E6F0E0DE01189601900D928A95E1F73B
S1130570CE0101964C01A12CB12C3501F40141901E
S11305804F0140E0642D82E00E9436047E01F4E0D5
S1130590EF0EF11C00E010E06801F70151907F01BB
S11305A0652D80E00E948404811117C0C801880F62
S11305B0991FC80ED91E81E090E08C0F9D1FC80EB4
S11305C0D91EF601E60DF71D1781652D80E00E9406
S11305D084048823D1F3812F13C00F5F1F4F04308D
S11305E01105D1F641E0642D82E00E9436049FEFAC
S11305F0A91AB90AE3E0AE16B10409F0BECF8AEA3B
S113060063960FB6F894DEBF0FBECDBFDF91CF91D6
S11306101F910F91FF90EF90DF90CF90BF90AF901C
S11306209F908F907F906F905F904F900895CF939D
S1130630C82F41E065E080E00E94360440E066E0B7
S113064080E00E9436046C2F81E00E94740441E033
S113065067E080E00E9436048FE99FE00197F1F79C
S113066000C0000040E067E080E00E943604CF91C3
S11306700895CF93C82F40E065E080E00E943604DF
S113068040E066E080E00E9436046C2F81E00E9426
S1130690740441E067E080E00E9436048FE99FE043
S11306A00197F1F700C0000040E067E080E00E949D
S11306B03604CF9108956FEF81E00E94640441E015
S11306C065E080E00E94080441E066E080E00E946A
S11306D0080441E067E080E00E9408042FEF89EFFE
S11306E090E0215080409040E1F700C0000088E392
S11306F00E9439038CE00E94390381E00E9439038F
S113070086E00E943903089581E00E943903089528
S113071090E4899F600D1124862F80680E9439031C
S113072008950F931F93CF93FC018081882359F080
S11307308F01C0E00E941703CF5FF801EC0FF11D99
S113074080818111F7CFCF911F910F910895CF939D
S1130750DF93CDB7DEB72A970FB6F894DEBF0FBE8E
S1130760CDBFDC01CB014AE0BE016F5F7F4F0E9429
S11307702F08CE0101960E9491032A960FB6F89491
S1130780DEBF0FBECDBFDF91CF9108956AE082E056
S11307900E944E0580E29EE40E94A9050895853BCF
S11307A008F084EB682F70E080E090E00E94360748
S11307B021E63BE046EB5BE30E94C20720E030E029
S11307C040E85FE30E94990620E030E04AE754E401
S11307D00E94C2070E9405077093E6006093E5003B
S11307E0CB010E94AC0508953E9A3F983D9A3098FB
S11307F0319A329A379A089597B1907E97B997B102
S1130800892B87B9369A349BFECF349A85B10895E3
S1130810813049F028F0823049F0833051F00BC028
S1130820EAE3F0E008C0E7E3F0E005C0E4E3F0E069
S113083002C0E1E3F0E0442369F04130B1F42081E7
S113084081E090E002C0880F991F6A95E2F7822B3D
S113085080830895208181E090E002C0880F991F71
S11308606A95E2F78095822380830895813049F068
S113087028F0823049F0833051F00BC0EBE3F0E014
S113088008C0E8E3F0E005C0E5E3F0E002C0E2E31D
S1130890F0E0442369F04130B1F4208181E090E03C
S11308A002C0880F991F6A95E2F7822B808308950E
S11308B0208181E090E002C0880F991F6A95E2F7D9
S11308C08095822380830895813041F028F082301E
S11308D039F0833039F008956ABB089567BB0895F1
S11308E064BB089561BB0895813041F028F08230E3
S11308F039F0833039F008956BBB089568BB0895CF
S113090065BB089562BB0895813081F028F0823080
S1130910B9F08330F9F027C089B390E002C095950F
S113092087956A95E2F7982F91701DC086B390E081
S113093002C0959587956A95E2F7982F917013C038
S113094083B390E002C0959587956A95E2F7982F56
S1130950917009C080B390E002C0959587956A951F
S1130960E2F7982F9170892F08951F920F920FB676
S11309700F9211242F933F934F935F936F937F9321
S11309808F939F93AF93BF93EF93FF93E091EB000B
S1130990F091EC00309709F00995FF91EF91BF9128
S11309A0AF919F918F917F916F915F914F913F9103
S11309B02F910F900FBE0F901F9018951F920F92BA
S11309C00FB60F9211242F933F934F935F936F931E
S11309D07F938F939F93AF93BF93EF93FF93E09194
S11309E0E900F091EA00309709F00995FF91EF9141
S11309F0BF91AF919F918F917F916F915F914F9133
S1130A003F912F910F900FBE0F901F9018951F923A
S1130A100F920FB60F9211242F933F934F935F932E
S1130A206F937F938F939F93AF93BF93EF93FF93B2
S1130A30E091E700F091E800309709F00995FF9103
S1130A40EF91BF91AF919F918F917F916F915F9142
S1130A504F913F912F910F900FBE0F901F901895BB
S1130A600F931F938B019C01672B682B692B69F4EF
S1130A7012C00197F1F74F5F5F4F6F4F7F4F04171D
S1130A8015072607370721F406C040E050E0BA01F5
S1130A908EE591E0EECF1F910F91089520E030E0B4
S1130AA05DECA1E0B0E0659F912D1124969596959B
S1130AB09695990F492F440F440F940F462F491BC5
S1130AC0413059F49EB5FD01022E02C0EE0FFF1F06
S1130AD00A94E2F7E92BEEBD0CC04EB5FD01022EDF
S1130AE002C0EE0FFF1F0A94E2F79E2F9095942305
S1130AF09EBD659F612D11246695669566952F5F51
S1130B003F4F2330310579F6882319F0823071F094
S1130B1008958FB58E7F8FBD8FB58D7F8FBD8EB5B8
S1130B20877F8EBD8EB58F7E8EBD08958FB58F7BEA
S1130B308FBD8FB580688FBD8FB58E7F8FBD8FB50C
S1130B4082608FBD8EB588608EBD8EB580618EBD8E
S1130B50089597BD86BD08959BBD8ABD08951F92D3
S1130B600F920FB60F9211242F933F934F935F93DD
S1130B706F937F938F939F93AF93BF93EF93FF9361
S1130B80E091F100F091F200309709F00995FF919E
S1130B90EF91BF91AF919F918F917F916F915F91F1
S1130BA04F913F912F910F900FBE0F901F9018956A
S1130BB01F920F920FB60F9211242F933F934F93CE
S1130BC05F936F937F938F939F93AF93BF93EF93B1
S1130BD0FF93E091EF00F091F000309709F0099550
S1130BE0FF91EF91BF91AF919F918F917F916F9101
S1130BF05F914F913F912F910F900FBE0F901F90D7
S1130C0018951F920F920FB60F9211242F933F93B2
S1130C104F935F936F937F938F939F93AF93BF9300
S1130C20EF93FF93E091ED00F091EE00309709F01F
S1130C300995FF91EF91BF91AF919F918F917F9112
S1130C406F915F914F913F912F910F900FBE0F9035
S1130C501F90189596E990B909980898882311F07F
S1130C60880F82B986B7846086BF089586B780628C
S1130C7086BF86B7806886BF06B607FEFDCF91B1F2
S1130C80987F81E0983009F480E0089586B7806207
S1130C9086BF86B7806886BF06B607FEFDCF81B1E2
S1130CA0887F803111F082E0089580E00895880FF4
S1130CB083B9189884E886BF06B607FEFDCF81B1D4
S1130CC0887F883111F083E0089580E00895880FCB
S1130CD083B9189A84E886BF06B607FEFDCF81B1B2
S1130CE0887F803411F084E0089580E0089583B90A
S1130CF086B7806886BF06B607FEFDCF81B185E062
S1130D000895FC0196B7906496BF96B7906896BF15
S1130D1006B607FEFDCF91B1987F903521F483B1DB
S1130D20808380E0089586E0089584E986BF08956D
S1130D305058BB27AA270E94B0060C9488070E942B
S1130D407A0738F00E94810720F039F49F3F19F4A4
S1130D5026F40C9477070EF4E095E7FB0C947107E6
S1130D60E92F0E94990758F3BA176207730784079B
S1130D70950720F079F4A6F50C94BB070EF4E095E2
S1130D800B2EBA2FA02D0B01B90190010C01CA0141
S1130D90A0011124FF27591B99F0593F50F4503EEC
S1130DA068F11A16F040A22F232F342F4427585FDE
S1130DB0F3CF469537952795A795F0405395C9F7F6
S1130DC07EF41F16BA0B620B730B840BBAF09150AE
S1130DD0A1F0FF0FBB1F661F771F881FC2F70EC04D
S1130DE0BA0F621F731F841F48F487957795679520
S1130DF0B795F7959E3F08F0B0CF9395880F08F00C
S1130E009927EE0F9795879508950E94A10788F07A
S1130E109F5798F0B92F9927B751B0F0E1F0660FBA
S1130E20771F881F991F1AF0BA95C9F714C0B130FB
S1130E3091F00E94BB07B1E008950C94BB07672FA3
S1130E40782F8827B85F39F0B93FCCF3869577952A
S1130E506795B395D9F73EF4909580957095619513
S1130E607F4F8F4F9F4F0895E89409C097FB3EF43E
S1130E7090958095709561957F4F8F4F9F4F9923E3
S1130E80A9F0F92F96E9BB279395F6958795779561
S1130E906795B795F111F8CFFAF4BB0F11F460FF21
S1130EA01BC06F5F7F4F8F4F9F4F16C0882311F079
S1130EB096E911C0772321F09EE8872F762F05C08D
S1130EC0662371F096E8862F70E060E02AF09A9528
S1130ED0660F771F881FDAF7880F9695879597F91D
S1130EE0089597F99F6780E870E060E008959FEFA8
S1130EF080EC089500240A941616170618060906AD
S1130F00089500240A94121613061406050608957B
S1130F10092E0394000C11F4882352F0BB0F40F403
S1130F20BF2B11F460FF04C06F5F7F4F8F4F9F4F43
S1130F30089557FD9058440F551F59F05F3F71F0C5
S1130F404795880F97FB991F61F09F3F79F087952C
S1130F500895121613061406551FF2CF4695F1DFB5
S1130F6008C0161617061806991FF1CF8695710545
S1130F70610508940895E894BB2766277727CB0179
S1130F8097F908950E94D5070C9488070E947A0760
S1130F9038F00E94810720F0952311F00C9471071A
S1130FA00C94770711240C94BC070E94990770F3E2
S1130FB0959FC1F3950F50E0551F629FF001729FFA
S1130FC0BB27F00DB11D639FAA27F00DB11DAA1F09
S1130FD0649F6627B00DA11D661F829F2227B00D56
S1130FE0A11D621F739FB00DA11D621F839FA00DE1
S1130FF0611D221F749F3327A00D611D231F849F31
S1131000600D211D822F762F6A2F11249F57504087
S11310109AF0F1F088234AF0EE0FFF1FBB1F661F02
S1131020771F881F91505040A9F79E3F510580F0CB
S11310300C9471070C94BC075F3FE4F3983ED4F31F
S1131040869577956795B795F795E7959F5FC1F76F
S1131050FE2B880F911D9695879597F90895BB27C8
S11310604A3031F4992322F4BDE2909581959F4F43
S11310700C943B08BB27FB015527AA27880F991F0F
S1131080AA1FA41710F0A41B83955051B9F7A05DB3
S1131090AA3308F0A95DA193009779F7B111B19330
S11310A01192CB010C945408DC01FC01672F71915F
S11310B07723E1F7329704C07C916D93708362913A
S10F10C0AE17BF07C8F30895F894FFCFE3
S11310CC32000708090405060102030D000C5365E0
S11310DC74206E657720706173733A004552524FD9
S11310EC522021212121004D6178204469676974C3
S11310FC73206973203400446F6F72206973206FFE
S113110C70656E656400446F6F7220697320436C64
S113111C6F7365640057726F6E67207061737377B9
S113112C6F72642021007061737320697320757071
S113113C64617465640046697273742052756E0040
S9030000FC
