S01900004954495F46696E616C5F50726F6A6563742E73726563A6
S11300000C942A000C94BD050C94E6050C940F0680
S11300100C9447000C9447000C9420070C94490757
S11300200C9447000C9447000C94F7060C94CE06ED
S11300300C9447000C943E080C9447000C94470021
S11300400C9447000C9447000C9447000C94470010
S11300500C94470011241FBECFE5D8E0DEBFCDBF0E
S113006011E0A0E6B0E0EEE4F5E102C005900D92E7
S1130070AE38B107D9F721E0AEE8B1E001C01D9276
S1130080A83AB207E1F70E94DD010C94A50A0C948A
S1130090000080E00E94040590E0BC01660F771F19
S11300A0660F771F680F791F072E000C880B990BBA
S11300B00E9477092AE037ED43E250E40E94D40815
S11300C00E944609633258F041E066E083E00E94F2
S11300D03E0540E067E083E00E943E0508956931F3
S11300E058F040E066E083E00E943E0541E067E0AE
S11300F083E00E943E05089540E066E083E00E94AC
S11301003E0540E067E083E00E943E05089580914B
S1130110A5019091A6018093A7019093A4016091F9
S11301206000709161000E9416036CE271E080E04F
S113013090E00E943C066091600070916100665FEF
S11301407F4F8091A4010E9416036CE271E080E06D
S113015090E00E943C060895CF930E949403C82F18
S11301608D3009F085C020919001309191018091EA
S1130170A5019091A6012817390709F070C00E94C3
S11301808C041092A6011092A50110929101109274
S1130190900110928F018EE690E00E9499040E94D3
S11301A09403C82F80918F018530A1F40E948C04A0
S11301B08CE790E00E94990460E081E00E94900442
S11301C087E890E00E94990410928F011092A60192
S11301D01092A501CD3049F410928F010E948C0435
S11301E01092A6011092A501DACFCA3AC1F2CC301E
S11301F009F4ACC080918F01811102C00E948C046B
S11302006C2F70E080E090E00E94AF0460EB74E03B
S113021080E090E00E943C0660918F0180E00E94A3
S113022090048AE20E941F0480918F018F5F809363
S11302308F018091A5019091A6019C01220F331F8B
S1130240880F991F880F991F880F991F820F931F7A
S11302508C0F911D9093A6018093A501A0CF0E94BD
S11302608C04109291011092900110928F0178C029
S11302708C3089F50E948C04209190013091910179
S11302808091A5019091A60128173907C9F480919E
S11302908E0181110BC087E990E00E94990484EBE0
S11302A00E94D70481E080938E010EC088EA90E01A
S11302B00E94990480E00E94D70410928E0104C029
S11302C089EB90E00E9499041092910110929001A0
S11302D010928F0145C08A3A09F442C080918F017F
S11302E0811102C00E948C046C2F70E080E090E0C9
S11302F00E94AF042FE78AE196E0215080409040AD
S1130300E1F700C0000060918F0180E00E9490043A
S11303108AE20E941F0480918F018F5F80938F0176
S113032080919001909191019C01220F331F880FBD
S1130330991F880F991F880F991F820F931F8C0F85
S1130340911D90939101809390010AC00E948C04A6
S113035086EC90E00E94990410928F010E9487001D
S1130360CF910895609160007091610087EA91E0F7
S11303700E942E036CE271E080E090E00E943C0653
S11303806091600070916100665F7F4F84EA91E044
S11303900E942E036CE271E080E090E00E943C0633
S11303A08091A40190E0982F88272091A701822BA7
S11303B09093A6018093A5010895CF93DF931F9294
S11303C0CDB7DEB719820E94FC0441E066E083E009
S11303D00E94100541E067E083E00E9410050E943E
S11303E063040E944D0341E065E083E00E94100530
S11303F00E94CE0480E00E94720765E070E0CE01A6
S113040001960E942E0389818C31D1F086ED90E013
S11304100E9499048CE1898382ED94E09093A60173
S11304208093A5010E94870065E070E089810E94A5
S113043016036CE271E080E090E00E943C0604C088
S113044080EE90E00E9499040E94B2010E94E407A9
S113045082E692E00E9437080E943C080E94380617
S113046041E065E082E00E94100541E066E082E040
S11304700E94100541E067E082E00E9410050E949E
S11304803C080E94AC000E944900F9CFCF93DF934F
S1130490C82FD62F0E948C04C13339F441E06D2F4C
S11304A082E00E943E0581E00AC0C03339F440E096
S11304B06D2F82E00E943E0582E001C083E0DF915F
S11304C0CF910895CF92DF92EF92FF920F931F93F3
S11304D0CF93DF9300D000D000D0CDB7DEB70E9419
S11304E0F1078A3209F093C08DEE90E00E94210852
S11304F08AE20E94EC070E948C048AE20E941F0494
S11305008E010F5F1F4F6E0187E0C80ED11C78016A
S1130510C8010E94F507813079F48DE00E94EC0750
S113052080E191E00E9421088DE00E94EC070E9486
S11305308C040E94CE046BC0F80181918F010E944B
S1130540EC07F70180810E941F040C151D05F9F6C4
S11305508DE00E94EC078981893649F48A818A32C8
S113056031F48C818A3219F48E81833239F082E23B
S113057091E00E9421080E94CE0449C08B818133FE
S113058031F465E08D810E944602182F0FC082333A
S113059031F466E08D810E944602182F07C0833330
S11305A039F467E08D810E944602182F133029F434
S11305B08CE391E00E94210828C08BE591E00E9421
S11305C021088B810E94EC07113081F481E691E0CF
S11305D00E9421088BE591E00E9499048B810E947E
S11305E01F048FE691E00E9499040FC086E791E012
S11305F00E9421088BE591E00E9499048B810E945E
S11306001F0485E891E00E9499040E94CE04269676
S11306100FB6F894DEBF0FBECDBFDF91CF911F910F
S11306200F91FF90EF90DF90CF9008951F93CF9399
S1130630DF93C82FD62F172F0E947E07812F806546
S11306400E949F078D2F0E94BF078C2F0E94BF0717
S11306500E94DD07DF91CF911F9108950F931F939F
S1130660CF93DF938C01D62FC72FC0650E947E07DE
S11306708C2F0E949F078D2F0E94BF070E948E0718
S11306808C2F0E94AF07C8010E94C9070E94DD0792
S1130690DF91CF911F910F91089541E062E082E0D4
S11306A00E94100541E063E082E00E94100541E0F1
S11306B064E082E00E94100541E062E082E00E9472
S11306C03E0541E063E082E00E943E0541E064E0D3
S11306D082E00E943E0540E061E080E00E94100557
S11306E040E062E080E00E94100540E063E080E0CA
S11306F00E94100540E064E080E00E94100541E0A3
S113070061E080E00E943E0541E062E080E00E94FA
S11307103E0541E063E080E00E943E0541E064E084
S113072080E00E943E0508954F925F926F927F92FF
S11307308F929F92AF92BF92CF92DF92EF92FF92ED
S11307400F931F93CF93DF93CDB7DEB763970FB6A5
S1130750F894DEBF0FBECDBF22E0298393E09A83D5
S113076084E08B8331E03C832D839E838F838CE0F4
S1130770E2E6F0E0DE01189601900D928A95E1F729
S1130780CE0101964C01A12CB12C3501F40141900C
S11307904F0140E0642D82E00E943E057E01F4E0BA
S11307A0EF0EF11C00E010E06801F70151907F01A9
S11307B0652D80E00E948C05811117C0C801880F47
S11307C0991FC80ED91E81E090E08C0F9D1FC80EA2
S11307D0D91EF601E60DF71D1781652D80E00E94F4
S11307E08C058823D1F3812F13C00F5F1F4F043072
S11307F01105D1F641E0642D82E00E943E059FEF91
S1130800A91AB90AE3E0AE16B10409F0BECF8AEA28
S113081063960FB6F894DEBF0FBECDBFDF91CF91C4
S11308201F910F91FF90EF90DF90CF90BF90AF900A
S11308309F908F907F906F905F904F900895CF938B
S1130840C82F41E065E080E00E943E0540E066E09C
S113085080E00E943E056C2F81E00E947C0541E00F
S113086067E080E00E943E058FE99FE00197F1F781
S113087000C0000040E067E080E00E943E05CF91A8
S11308800895CF93C82F40E065E080E00E943E05C4
S113089040E066E080E00E943E056C2F81E00E940B
S11308A07C0541E067E080E00E943E058FE99FE01F
S11308B00197F1F700C0000040E067E080E00E948B
S11308C03E05CF9108956FEF81E00E946C0541E0F1
S11308D065E080E00E94100541E066E080E00E944F
S11308E0100541E067E080E00E9410052FEF89EFDA
S11308F090E0215080409040E1F700C0000088E380
S11309000E9441048CE00E94410481E00E94410461
S113091086E00E944104089581E00E944104089504
S113092090E4899F600D1124862F80680E94410401
S113093008950F931F93CF93FC018081882359F06E
S11309408F01C0E00E941F04CF5FF801EC0FF11D7E
S113095080818111F7CFCF911F910F910895CF938B
S1130960DF93CDB7DEB72A970FB6F894DEBF0FBE7C
S1130970CDBFDC01CB014AE0BE016F5F7F4F0E9417
S1130980700ACE0101960E9499042A960FB6F89433
S1130990DEBF0FBECDBFDF91CF9108956AE082E044
S11309A00E945A0680E29EE40E94C8060895853B90
S11309B008F084EB682F70E080E090E00E947709F3
S11309C021E63BE046EB5BE30E94030A20E030E0D3
S11309D040E85FE30E94680820E030E04AE754E41E
S11309E00E94030A0E944609709393016093920146
S11309F0CB010E94CB0608953E9A3F983D9A3098C9
S1130A00319A329A379A089597B1907E97B997B1EF
S1130A10892B87B9369A349BFECF349A85B10895D1
S1130A20813049F028F0823049F0833051F00BC016
S1130A30EAE3F0E008C0E7E3F0E005C0E4E3F0E057
S1130A4002C0E1E3F0E0442369F04130B1F42081D5
S1130A5081E090E002C0880F991F6A95E2F7822B2B
S1130A6080830895208181E090E002C0880F991F5F
S1130A706A95E2F78095822380830895813049F056
S1130A8028F0823049F0833051F00BC0EBE3F0E002
S1130A9008C0E8E3F0E005C0E5E3F0E002C0E2E30B
S1130AA0F0E0442369F04130B1F4208181E090E02A
S1130AB002C0880F991F6A95E2F7822B80830895FC
S1130AC0208181E090E002C0880F991F6A95E2F7C7
S1130AD08095822380830895813041F028F082300C
S1130AE039F0833039F008956ABB089567BB0895DF
S1130AF064BB089561BB0895813041F028F08230D1
S1130B0039F0833039F008956BBB089568BB0895BC
S1130B1065BB089562BB0895813081F028F082306E
S1130B20B9F08330F9F027C089B390E002C09595FD
S1130B3087956A95E2F7982F91701DC086B390E06F
S1130B4002C0959587956A95E2F7982F917013C026
S1130B5083B390E002C0959587956A95E2F7982F44
S1130B60917009C080B390E002C0959587956A950D
S1130B70E2F7982F9170892F08951F920F920FB664
S1130B800F9211242F933F934F935F936F937F930F
S1130B908F939F93AF93BF93EF93FF93E09198014B
S1130BA0F0919901309709F00995FF91EF91BF9168
S1130BB0AF919F918F917F916F915F914F913F91F1
S1130BC02F910F900FBE0F901F9018951F920F92A8
S1130BD00FB60F9211242F933F934F935F936F930C
S1130BE07F938F939F93AF93BF93EF93FF93E09182
S1130BF09601F0919701309709F00995FF91EF91D3
S1130C00BF91AF919F918F917F916F915F914F9120
S1130C103F912F910F900FBE0F901F9018951F9228
S1130C200F920FB60F9211242F933F934F935F931C
S1130C306F937F938F939F93AF93BF93EF93FF93A0
S1130C40E0919401F0919501309709F00995FF9195
S1130C50EF91BF91AF919F918F917F916F915F9130
S1130C604F913F912F910F900FBE0F901F901895A9
S1130C708FB780688FBF08950F931F938B019C01DA
S1130C80672B682B692B69F412C00197F1F74F5F4A
S1130C905F4F6F4F7F4F041715072607370721F45F
S1130CA006C040E050E0BA018EE591E0EECF1F911E
S1130CB00F9108958130A1F018F0823009F132C00B
S1130CC08FB58E7F8FBD8FB58D7F8FBD8EB5877F9E
S1130CD08EBD8EB58F7E8EBD89B7846089BF22C0DC
S1130CE08FB58E7F8FBD8FB58D7F8FBD8EB588609C
S1130CF08EBD8EB58F7E8EBD89B7806189BF12C0CF
S1130D008FB58F7B8FBD8FB580688FBD8FB58E7F7C
S1130D108FBD8FB582608FBD8EB588608EBD8EB558
S1130D2080618EBDE0E0F0E04DECA1E0B0E0649FB6
S1130D30812D1124869586958695880F982F990F75
S1130D40990F890F962F981B913059F42EB5CD0128
S1130D500E2E02C0880F991F0A94E2F7822B8EBDD3
S1130D600CC09EB59D010E2E02C0220F331F0A94A3
S1130D70E2F7822F809589238EBD649F612D112413
S1130D806695669566953196E330F10581F608958A
S1130D9097BD86BD08959BBD8ABD08951F920F928D
S1130DA00FB60F9211242F933F934F935F936F933A
S1130DB07F938F939F93AF93BF93EF93FF93E091B0
S1130DC0A001F091A101309709F00995FF91EF91ED
S1130DD0BF91AF919F918F917F916F915F914F914F
S1130DE03F912F910F900FBE0F901F9018951F9257
S1130DF00F920FB60F9211242F933F934F935F934B
S1130E006F937F938F939F93AF93BF93EF93FF93CE
S1130E10E0919E01F0919F01309709F00995FF91AF
S1130E20EF91BF91AF919F918F917F916F915F915E
S1130E304F913F912F910F900FBE0F901F901895D7
S1130E401F920F920FB60F9211242F933F934F933B
S1130E505F936F937F938F939F93AF93BF93EF931E
S1130E60FF93E0919C01F0919D01309709F0099561
S1130E70FF91EF91BF91AF919F918F917F916F916E
S1130E805F914F913F912F910F900FBE0F901F9044
S1130E9018951F920F920FB60F9211242F933F9320
S1130EA04F935F936F937F938F939F93AF93BF936E
S1130EB0EF93FF93E0919A01F0919B01309709F031
S1130EC00995FF91EF91BF91AF919F918F917F9180
S1130ED06F915F914F913F912F910F900FBE0F90A3
S1130EE01F90189596E990B909980898882311F0ED
S1130EF0880F82B986B7846086BF089586B78062FA
S1130F0086BF86B7806886BF06B607FEFDCF91B15F
S1130F10987F81E0983009F480E0089586B7806274
S1130F2086BF86B7806886BF06B607FEFDCF81B14F
S1130F30887F803111F082E0089580E00895880F61
S1130F4083B9189884E886BF06B607FEFDCF81B141
S1130F50887F883111F083E0089580E00895880F38
S1130F6083B9189A84E886BF06B607FEFDCF81B11F
S1130F70887F803411F084E0089580E0089583B977
S1130F8086B7806886BF06B607FEFDCF81B185E0CF
S1130F900895FC0196B7906496BF96B7906896BF83
S1130FA006B607FEFDCF91B1987F903521F483B149
S1130FB0808380E0089586E0089586B7806186BFC7
S1130FC086B7806886BF0895529886E880BD83E31B
S1130FD089B9539A549A08955D9BFECF5D9A8CB952
S1130FE008955F9BFECF8CB10895FC011DBC1CBC11
S1130FF08FB58E7F8FBD9FB59D7F9FBD9EB5977F1B
S11310009EBD9EB59F7E9EBD9EB591609EBD9EB5C4
S11310109D7F9EBD9EB594609EBD0BC02CB53DB515
S113102020343C4930F05F9A8EB5887F8EBD81E0D4
S113103008955F9BF3CF8CB180831DBC1CBC80E002
S113104008950F931F93CF93FC018081882359F057
S11310508F01C0E00E94EC07CF5FF801EC0FF11D97
S113106080818111F7CFCF911F910F9108959093B3
S1131070A3018093A2010895579A08951F920F9295
S11310800FB60F9211242F933F934F935F936F9357
S11310907F938F939F93AF93BF93EF93FF93E091CD
S11310A0A201F091A301309709F00995FF91EF9106
S11310B0BF91AF919F918F917F916F915F914F916C
S11310C03F912F910F900FBE0F901F90189550587D
S11310D0BB27AA270E947F080C94C9090E94BB0958
S11310E038F00E94C20920F039F49F3F19F426F425
S11310F00C94B8090EF4E095E7FB0C94B209E92FBF
S11311000E94DA0958F3BA17620773078407950730
S113111020F079F4A6F50C94FC090EF4E0950B2E5E
S1131120BA2FA02D0B01B90190010C01CA01A00135
S11311301124FF27591B99F0593F50F4503E68F190
S11311401A16F040A22F232F342F4427585FF3CFD1
S1131150469537952795A795F0405395C9F77EF4A2
S11311601F16BA0B620B730B840BBAF09150A1F0EB
S1131170FF0FBB1F661F771F881FC2F70EC0BA0F71
S1131180621F731F841F48F4879577956795B795F9
S1131190F7959E3F08F0B0CF9395880F08F09927F4
S11311A0EE0F9795879508950E94E8080C94C90955
S11311B00E94C20958F00E94BB0940F029F45F3F25
S11311C029F00C94B20951110C94FD090C94B8093E
S11311D00E94DA0968F39923B1F3552391F3951B1F
S11311E0550BBB27AA2762177307840738F09F5F44
S11311F05F4F220F331F441FAA1FA9F335D00E2EB1
S11312003AF0E0E832D091505040E695001CCAF71D
S11312102BD0FE2F29D0660F771F881FBB1F2617E0
S113122037074807AB07B0E809F0BB0B802DBF01B7
S1131230FF2793585F4F3AF09E3F510578F00C9486
S1131240B2090C94FD095F3FE4F3983ED4F386950C
S113125077956795B795F7959F5FC9F7880F911DA7
S11312609695879597F90895E1E0660F771F881F93
S1131270BB1F621773078407BA0720F0621B730B46
S1131280840BBA0BEE1F88F7E09508950E94E209DB
S113129088F09F5798F0B92F9927B751B0F0E1F033
S11312A0660F771F881F991F1AF0BA95C9F714C0E3
S11312B0B13091F00E94FC09B1E008950C94FC094E
S11312C0672F782F8827B85F39F0B93FCCF386951C
S11312D077956795B395D9F73EF490958095709579
S11312E061957F4F8F4F9F4F0895E89409C097FBF6
S11312F03EF490958095709561957F4F8F4F9F4FE9
S11313009923A9F0F92F96E9BB279395F69587952C
S113131077956795B795F111F8CFFAF4BB0F11F4EF
S113132060FF1BC06F5F7F4F8F4F9F4F16C0882396
S113133011F096E911C0772321F09EE8872F762FCC
S113134005C0662371F096E8862F70E060E02AF00D
S11313509A95660F771F881FDAF7880F96958795F9
S113136097F9089597F99F6780E870E060E0089521
S11313709FEF80EC089500240A94161617061806A9
S11313800906089500240A94121613061406050685
S11313900895092E0394000C11F4882352F0BB0F16
S11313A040F4BF2B11F460FF04C06F5F7F4F8F4F79
S11313B09F4F089557FD9058440F551F59F05F3FB4
S11313C071F04795880F97FB991F61F09F3F79F063
S11313D087950895121613061406551FF2CF4695E5
S11313E0F1DF08C0161617061806991FF1CF869567
S11313F07105610508940895E894BB27662777274B
S1131400CB0197F908950E94160A0C94C9090E9409
S1131410BB0938F00E94C20920F0952311F00C9406
S1131420B2090C94B80911240C94FD090E94DA093C
S113143070F3959FC1F3950F50E0551F629FF00123
S1131440729FBB27F00DB11D639FAA27F00DB11D3C
S1131450AA1F649F6627B00DA11D661F829F2227C5
S1131460B00DA11D621F739FB00DA11D621F839F4C
S1131470A00D611D221F749F3327A00D611D231F22
S1131480849F600D211D822F762F6A2F11249F5770
S113149050409AF0F1F088234AF0EE0FFF1FBB1F73
S11314A0661F771F881F91505040A9F79E3F510532
S11314B080F00C94B2090C94FD095F3FE4F3983E6C
S11314C0D4F3869577956795B795F795E7959F5FDC
S11314D0C1F7FE2B880F911D9695879597F908956E
S11314E0BB274A3031F4992322F4BDE290958195CB
S11314F09F4F0C947C0ABB27FB015527AA27880F12
S1131500991FAA1FA41710F0A41B83955051B9F773
S1131510A05DAA3308F0A95DA193009779F7B111F2
S1131520B1931192CB010C94950ADC01FC01672F55
S113153071917723E1F7329704C07C916D937083A6
S11115406291AE17BF07C8F30895F894FFCF69
S113154E32000708090405060102030D000C536559
S113155E74206E657720706173733A004552524F52
S113156E522021212121004D61782044696769743C
S113157E732069732034004C6F636B65722069733A
S113158E206F70656E6564004C6F636B65722069C5
S113159E7320436C6F7365640057726F6E672070AF
S11315AE61737321200070617373206973207570E9
S11315BE64617465640046697273742052756E00BA
S11315CE53797374656D206973204F6E004578707E
S11315DE656374656420494E5020466F726D617464
S11315EE2022202A692A782A78232022203A0D00E4
S11315FE23234552524F523A2054696D65204F753C
S113160E74002323494E434F525245435420494EAE
S113161E50555420464F524D41540D002323494EEC
S113162E434F525245435420524F4F4D204E756DE9
S113163E206F722053746174650D00524F4F4D200C
S113164E00204C69676874204973204F4E0D0020AA
S113165E6973204F4E00204C6967687420497320CB
S111166E4F46460D00206973204F464600008B
S9030000FC
