S01900004954495F46696E616C5F50726F6A6563742E73726563A6
S11300000C942A000C942C040C9455040C947E0437
S11300100C9447000C9447000C9478050C9447000A
S11300200C9447000C9447000C944F050C9426053F
S11300300C9447000C9447000C9447000C94470020
S11300400C9447000C9447000C9447000C94470010
S11300500C94470011241FBECFE5D8E0DEBFCDBF0E
S113006010E0A0E6B0E0EAEBFFE002C005900D92DC
S1130070AC3BB107D9F720E0ACEBB0E001C01D9276
S1130080A13DB207E1F70E943F010C94DB070C94F9
S1130090000080E00E947303823158F041E066E082
S11300A083E00E94AD0340E067E083E00E94AD037B
S11300B008958D3058F040E066E083E00E94AD037F
S11300C041E067E083E00E94AD03089540E066E00C
S11300D083E00E94AD0340E067E083E00E94AD034B
S11300E00895CF930E940A02C82F8D3009F04EC0A4
S11300F02091BD003091BE008091CE009091CF0040
S113010028173907E1F50E9404031092CF001092DA
S1130110CE001092BE001092BD008EE690E00E94C8
S113012008030E940A02C82F8D3059F40E94040368
S11301301092CF001092CE008EE690E00E94080349
S1130140F0CF8A3A71F38C3009F475C08AE20E94C8
S113015097028091CE009091CF009C01220F331F13
S1130160880F991F880F991F880F991F820F931F5B
S11301708C0F911D9093CF008093CE00D2CF0E941C
S113018004031092BE001092BD0077C08C3079F544
S11301900E9404032091BD003091BE008091CE00E6
S11301A09091CF0028173907C9F48091BC008111C0
S11301B00BC08CE790E00E94080384EB0E94460386
S11301C081E08093BC000EC08BE890E00E9408039D
S11301D080E00E9446031092BC0004C08AE990E0CB
S11301E00E9408031092BE001092BD0046C08A3AD5
S11301F009F443C08091BD009091BE00892B11F495
S11302000E9404038AE20E9497028091BD009091AB
S1130210BE009C01220F331F880F991F880F991F5E
S1130220880F991F820F931F8C0F911D9093BE000E
S11302308093BD0022C00E9404038BEA90E00E94D8
S113024008038091CE008093D0006091600070918B
S113025061000E948C016CE271E080E090E00E94F9
S1130260A7048091CF008093CD00609160007091CD
S11302706100665F7F4F0E948C01CF9108950E94B8
S11302806B0341E066E083E00E947F0341E067E0A6
S113029083E00E947F030E94DB020E94C30141E0CD
S11302A065E083E00E947F030E943D0380E00E949A
S11302B0A105609160007091610080ED90E00E9462
S11302C0A4016CE271E080E090E00E94A7046091D8
S11302D0600070916100665F7F4F8DEC90E00E943A
S11302E0A4016CE271E080E090E00E94A7046091B8
S11302F0CD0070E0762F66278091D000682B709334
S1130300CF006093CE0080E090E00E941E030E9424
S113031071000E944900FBCF1F93CF93DF93C82F36
S1130320D62F172F0E94AD05812F80650E94CE0520
S11303308D2F0E94EE058C2F0E94EE050E940C0664
S1130340DF91CF911F9108950F931F93CF93DF9364
S11303508C01D62FC72FC0650E94AD058C2F0E943B
S1130360CE058D2F0E94EE050E94BD058C2F0E94A4
S1130370DE05C8010E94F8050E940C06DF91CF91AA
S11303801F910F91089541E064E082E00E947F0391
S113039041E065E082E00E947F0341E066E082E0A4
S11303A00E947F0341E064E082E00E94AD0341E0EB
S11303B065E082E00E94AD0341E066E082E00E94D5
S11303C0AD0340E061E080E00E947F0340E062E032
S11303D080E00E947F0340E063E080E00E947F03AE
S11303E040E064E080E00E947F0341E061E080E05F
S11303F00E94AD0341E062E080E00E94AD0341E071
S113040063E080E00E94AD0341E064E080E00E948C
S1130410AD0308954F925F926F927F928F929F9255
S1130420AF92BF92CF92DF92EF92FF920F931F93FE
S1130430CF93DF93CDB7DEB763970FB6F894DEBFE3
S11304400FBECDBF84E0898395E09A8396E09B83B9
S113045091E09C8392E09D8393E09E838F838CE064
S1130460E2E6F0E0DE01189601900D928A95E1F73C
S1130470CE0101964C01A12CB12C3501F40141901F
S11304804F0140E0642D82E00E94AD037E01F4E060
S1130490EF0EF11C00E010E06801F70151907F01BC
S11304A0652D80E00E94FB03811117C0C801880FED
S11304B0991FC80ED91E81E090E08C0F9D1FC80EB5
S11304C0D91EF601E60DF71D1781652D80E00E9407
S11304D0FB038823D1F3812F13C00F5F1F4F043018
S11304E01105D1F641E0642D82E00E94AD039FEF37
S11304F0A91AB90AE3E0AE16B10409F0BECF8AEA3C
S113050063960FB6F894DEBF0FBECDBFDF91CF91D7
S11305101F910F91FF90EF90DF90CF90BF90AF901D
S11305209F908F907F906F905F904F900895CF939E
S1130530C82F41E065E080E00E94AD0340E066E042
S113054080E00E94AD036C2F81E00E94EB0341E048
S113055067E080E00E94AD038FE99FE00197F1F727
S113056000C0000040E067E080E00E94AD03CF914E
S11305700895CF93C82F40E065E080E00E94AD036A
S113058040E066E080E00E94AD036C2F81E00E94B1
S1130590EB0341E067E080E00E94AD038FE99FE058
S11305A00197F1F700C0000040E067E080E00E949E
S11305B0AD03CF9108956FEF81E00E94DB0341E02A
S11305C065E080E00E947F0341E066E080E00E94F5
S11305D07F0341E067E080E00E947F032FEF89EF13
S11305E090E0215080409040E1F700C0000088E393
S11305F00E94B9028CE00E94B90281E00E94B90213
S113060086E00E94B902089581E00E94B90208952B
S11306100F931F93CF93FC018081882359F08F019E
S1130620C0E00E949702CF5FF801EC0FF11D8081BA
S11306308111F7CFCF911F910F910895CF93DF933D
S1130640CDB7DEB72A970FB6F894DEBF0FBECDBF85
S1130650DC01CB014AE0BE016F5F7F4F0E94A60719
S1130660CE0101960E9408032A960FB6F894DEBFC5
S11306700FBECDBFDF91CF9108956AE082E00E9462
S1130680C50480E29EE40E9420050895853B08F09D
S113069084EB682F70E080E090E00E94AD0621E6D4
S11306A03BE046EB5BE30E94390720E030E040E8A2
S11306B05FE30E94100620E030E04AE754E40E9421
S11306C039070E947C067093C0006093BF00CB0181
S11306D00E94230508953E9A3F983D9A3098319A96
S11306E0329A379A089597B1907E97B997B1892B2A
S11306F087B9369A349BFECF349A85B108958130F8
S113070049F028F0823049F0833051F00BC0EAE31D
S1130710F0E008C0E7E3F0E005C0E4E3F0E002C085
S1130720E1E3F0E0442369F04130B1F4208181E059
S113073090E002C0880F991F6A95E2F7822B8083AC
S11307400895208181E090E002C0880F991F6A9586
S1130750E2F78095822380830895813049F028F060
S1130760823049F0833051F00BC0EBE3F0E008C075
S1130770E8E3F0E005C0E5E3F0E002C0E2E3F0E026
S1130780442369F04130B1F4208181E090E002C05B
S1130790880F991F6A95E2F7822B80830895208140
S11307A081E090E002C0880F991F6A95E2F7809576
S11307B0822380830895813041F028F0823039F01B
S11307C0833039F008956ABB089567BB089564BB0C
S11307D0089561BB0895813041F028F0823039F0EA
S11307E0833039F008956BBB089568BB089565BBE9
S11307F0089562BB0895813081F028F08230B9F009
S11308008330F9F027C089B390E002C095958795AD
S11308106A95E2F7982F91701DC086B390E002C0EC
S1130820959587956A95E2F7982F917013C083B3D5
S113083090E002C0959587956A95E2F7982F91709C
S113084009C080B390E002C0959587956A95E2F758
S1130850982F9170892F08951F920F920FB60F92BF
S113086011242F933F934F935F936F937F938F93B1
S11308709F93AF93BF93EF93FF93E091C500F091E3
S1130880C600309709F00995FF91EF91BF91AF91A0
S11308909F918F917F916F915F914F913F912F9194
S11308A00F900FBE0F901F9018951F920F920FB6C6
S11308B00F9211242F933F934F935F936F937F93E2
S11308C08F939F93AF93BF93EF93FF93E091C300F4
S11308D0F091C400309709F00995FF91EF91BF9111
S11308E0AF919F918F917F916F915F914F913F91C4
S11308F02F910F900FBE0F901F9018951F920F927B
S11309000FB60F9211242F933F934F935F936F93DE
S11309107F938F939F93AF93BF93EF93FF93E09154
S1130920C100F091C200309709F00995FF91EF9151
S1130930BF91AF919F918F917F916F915F914F91F3
S11309403F912F910F900FBE0F901F9018950F930A
S11309501F938B019C01672B682B692B69F412C0D0
S11309600197F1F74F5F5F4F6F4F7F4F04171507E4
S11309702607370721F406C040E050E0BA018EE5AF
S113098091E0EECF1F910F91089520E030E05DECEF
S1130990A1E0B0E0659F912D1124969596959695CA
S11309A0990F492F440F440F940F462F491B413090
S11309B059F49EB5FD01022E02C0EE0FFF1F0A94EA
S11309C0E2F7E92BEEBD0CC04EB5FD01022E02C0CC
S11309D0EE0FFF1F0A94E2F79E2F909594239EBD7D
S11309E0659F612D11246695669566952F5F3F4F2F
S11309F02330310579F6882319F0823071F0089597
S1130A008FB58E7F8FBD8FB58D7F8FBD8EB5877F60
S1130A108EBD8EB58F7E8EBD08958FB58F7B8FBDB5
S1130A208FB580688FBD8FB58E7F8FBD8FB5826087
S1130A308FBD8EB588608EBD8EB580618EBD0895E4
S1130A4097BD86BD08959BBD8ABD08951F920F92E0
S1130A500FB60F9211242F933F934F935F936F938D
S1130A607F938F939F93AF93BF93EF93FF93E09103
S1130A70CB00F091CC00309709F00995FF91EF91EC
S1130A80BF91AF919F918F917F916F915F914F91A2
S1130A903F912F910F900FBE0F901F9018951F92AA
S1130AA00F920FB60F9211242F933F934F935F939E
S1130AB06F937F938F939F93AF93BF93EF93FF9322
S1130AC0E091C900F091CA00309709F00995FF91AF
S1130AD0EF91BF91AF919F918F917F916F915F91B2
S1130AE04F913F912F910F900FBE0F901F9018952B
S1130AF01F920F920FB60F9211242F933F934F938F
S1130B005F936F937F938F939F93AF93BF93EF9371
S1130B10FF93E091C700F091C800309709F0099560
S1130B20FF91EF91BF91AF919F918F917F916F91C1
S1130B305F914F913F912F910F900FBE0F901F9097
S1130B40189596E990B909980898882311F0880FA8
S1130B5082B986B7846086BF089586B7806286BFEF
S1130B6086B7806886BF06B607FEFDCF91B1987F31
S1130B7081E0983009F480E0089586B7806286BFEA
S1130B8086B7806886BF06B607FEFDCF81B1887F31
S1130B90803111F082E0089580E00895880F83B9D0
S1130BA0189884E886BF06B607FEFDCF81B1887F1A
S1130BB0883111F083E0089580E00895880F83B9A7
S1130BC0189A84E886BF06B607FEFDCF81B1887FF8
S1130BD0803411F084E0089580E0089583B986B7E5
S1130BE0806886BF06B607FEFDCF81B185E0089513
S1130BF0FC0196B7906496BF96B7906896BF06B608
S1130C0007FEFDCF91B1987F903521F483B18083A5
S1130C1080E0089586E0089584E986BF08955058D9
S1130C20BB27AA270E9427060C94FF060E94F10600
S1130C3038F00E94F80620F039F49F3F19F426F4A6
S1130C400C94EE060EF4E095E7FB0C94E806E92F0D
S1130C500E94100758F3BA176207730784079507B1
S1130C6020F079F4A6F50C9432070EF4E0950B2EDF
S1130C70BA2FA02D0B01B90190010C01CA01A001EA
S1130C801124FF27591B99F0593F50F4503E68F145
S1130C901A16F040A22F232F342F4427585FF3CF86
S1130CA0469537952795A795F0405395C9F77EF457
S1130CB01F16BA0B620B730B840BBAF09150A1F0A0
S1130CC0FF0FBB1F661F771F881FC2F70EC0BA0F26
S1130CD0621F731F841F48F4879577956795B795AE
S1130CE0F7959E3F08F0B0CF9395880F08F09927A9
S1130CF0EE0F9795879508950E94180788F09F57DF
S1130D0098F0B92F9927B751B0F0E1F0660F771F2B
S1130D10881F991F1AF0BA95C9F714C0B13091F021
S1130D200E943207B1E008950C943207672F782FA0
S1130D308827B85F39F0B93FCCF3869577956795E6
S1130D40B395D9F73EF490958095709561957F4F52
S1130D508F4F9F4F0895E89409C097FB3EF49095F8
S1130D608095709561957F4F8F4F9F4F9923A9F080
S1130D70F92F96E9BB279395F6958795779567950F
S1130D80B795F111F8CFFAF4BB0F11F460FF1BC053
S1130D906F5F7F4F8F4F9F4F16C0882311F096E9E6
S1130DA011C0772321F09EE8872F762F05C0662394
S1130DB071F096E8862F70E060E02AF09A95660F4D
S1130DC0771F881FDAF7880F9695879597F9089506
S1130DD097F99F6780E870E060E008959FEF80ECEA
S1130DE0089500240A94161617061806090608958D
S1130DF000240A9412161306140605060895092EF3
S1130E000394000C11F4882352F0BB0F40F4BF2B61
S1130E1011F460FF04C06F5F7F4F8F4F9F4F0895A1
S1130E2057FD9058440F551F59F05F3F71F0479597
S1130E30880F97FB991F61F09F3F79F0879508957C
S1130E40121613061406551FF2CF4695F1DF08C09B
S1130E50161617061806991FF1CF869571056105B8
S1130E6008940895E894BB2766277727CB0197F960
S1130E7008950E944C070C94FF060E94F10638F076
S1130E800E94F80620F0952311F00C94E8060C94C7
S1130E90EE0611240C9433070E94100770F3959FFB
S1130EA0C1F3950F50E0551F629FF001729FBB275D
S1130EB0F00DB11D639FAA27F00DB11DAA1F649FF9
S1130EC06627B00DA11D661F829F2227B00DA11DAC
S1130ED0621F739FB00DA11D621F839FA00D611D32
S1130EE0221F749F3327A00D611D231F849F600D53
S1130EF0211D822F762F6A2F11249F5750409AF07C
S1130F00F1F088234AF0EE0FFF1FBB1F661F771F07
S1130F10881F91505040A9F79E3F510580F00C94D2
S1130F20E8060C9433075F3FE4F3983ED4F38695C8
S1130F3077956795B795F795E7959F5FC1F7FE2B72
S1130F40880F911D9695879597F90895BB274A3088
S1130F5031F4992322F4BDE2909581959F4F0C942E
S1130F60B207BB27FB015527AA27880F991FAA1F81
S1130F70A41710F0A41B83955051B9F7A05DAA33B0
S1130F8008F0A95DA193009779F7B111B19311927B
S1130F90CB010C94CB07DC01FC01672F7191772303
S1130FA0E1F7329704C07C916D9370836291AE1720
S10D0FB0BF07C8F30895F894FFCFBB
S1130FBA32000708090405060102030D000C5365F3
S1130FCA74206E657720706173733A00446F6F7290
S1130FDA206973206F70656E656400446F6F7220B8
S1130FEA697320436C6F7365640057726F6E672070
S1130FFA70617373776F7264202100706173732058
S10F100A697320757064617465640000F3
S9030000FC
