S01900004954495F46696E616C5F50726F6A6563742E73726563A6
S11300000C942A000C94CE050C94F7050C9420064D
S11300100C9447000C9447000C9434070C945D072F
S11300200C9447000C9447000C940B070C94E206C4
S11300300C9447000C9452080C9447000C9447000D
S11300400C9447000C9447000C9447000C94470010
S11300500C94470011241FBECFE5D8E0DEBFCDBF0E
S113006011E0A0E6B0E0E6E7F5E102C005900D92EC
S1130070A239B107D9F721E0A2E9B1E001C01D928C
S1130080AC3AB207E1F70E94DA010C94B90A0C9475
S1130090000080E00E94150590E0BC01660F771F08
S11300A0660F771F680F791F072E000C880B990BBA
S11300B00E948B092AE037ED43E250E40E94E808ED
S11300C00E945A09633258F041E066E083E00E94DE
S11300D04F0540E067E083E00E944F0508956931D1
S11300E058F040E066E083E00E944F0541E067E09D
S11300F083E00E944F05089540E066E083E00E949B
S11301004F0540E067E083E00E944F050895809129
S1130110A9019091AA018093AB019093A8016091E9
S11301206000709161000E9427036CE271E080E03E
S113013090E00E944D066091600070916100665FDE
S11301407F4F8091A8010E9427036CE271E080E058
S113015090E00E944D060895CF930E94A503C82FF6
S11301608D3009F085C020919401309195018091E2
S1130170A9019091AA012817390709F070C00E94BB
S11301809D041092AA011092A90110929501109257
S11301909401109293018EE690E00E94AA040E94BA
S11301A0A503C82F809193018530A1F40E949D047A
S11301B08CE790E00E94AA0460E081E00E94A10420
S11301C087E890E00E94AA04109293011092AA0179
S11301D01092A901CD3049F4109293010E949D041C
S11301E01092AA011092A901DACFCA3AC1F2CC3016
S11301F009F4A9C080919301811102C00E949D0459
S11302006C2F70E080E090E00E94C00460EB74E02A
S113021080E090E00E944D066091930180E00E948E
S1130220A1048AE20E943004809193018F5F80933D
S113023093018091A9019091AA019C01220F331F7F
S1130240880F991F880F991F880F991F820F931F7A
S11302508C0F911D9093AA018093A901A0CF0E94B5
S11302609D0410929501109294011092930175C00F
S11302708C3089F50E949D04209194013091950160
S11302808091A9019091AA0128173907C9F4809196
S1130290920181110BC087E990E00E94AA0484EBCB
S11302A00E94E80481E0809392010EC088EA90E005
S11302B00E94AA0480E00E94E8041092920104C003
S11302C089EB90E00E94AA04109295011092940187
S11302D01092930142C08A3A09F43FC0809193017D
S11302E0811102C00E949D046C2F70E080E090E0B8
S11302F00E94C00460EB74E080E090E00E944D0630
S11303006091930180E00E94A1048AE20E9430047B
S1130310809193018F5F80939301809194019091D8
S113032095019C01220F331F880F991F880F991F75
S1130330880F991F820F931F8C0F911D9093950125
S1130340809394010AC00E949D048AEC90E00E946C
S1130350AA04109293010E948700CF91089560919E
S11303606000709161008BEA91E00E943F036CE2AF
S113037071E080E090E00E944D0660916000709111
S11303806100665F7F4F88EA91E00E943F036CE260
S113039071E080E090E00E944D068091A80190E019
S11303A0982F88272091AB01822B9093AA018093E8
S11303B0A9010895CF93DF931F92CDB7DEB71982B9
S11303C00E940D0541E066E083E00E94210541E0C2
S11303D067E083E00E9421050E9474040E945E038A
S11303E041E065E083E00E9421050E94DF0480E093
S11303F00E94860765E070E0CE0101960E943F03EB
S113040089818C31D1F08AED90E00E94AA048CE1BC
S1130410898382ED94E09093AA018093A9010E94BC
S1130420870065E070E089810E9427036CE271E037
S113043080E090E00E944D0604C084EE90E00E94AB
S1130440AA040E94AF010E94F80785E892E00E9486
S11304504B080E9450080E94490641E065E082E092
S11304600E94210541E066E082E00E94210541E00E
S113047067E082E00E9421050E9449060E9450081C
S11304800E94AC000E944900F7CFCF93DF93C82F9E
S1130490D62F0E949D04C133C9F441E06D2F82E040
S11304A00E944F0581EF90E00E94AA046D2F70E036
S11304B064507109072E000C880B990B0E94C0042C
S11304C087EF90E00E94AA0481E01CC0C033C9F405
S11304D040E06D2F82E00E944F0581EF90E00E9482
S11304E0AA046D2F70E064507109072E000C880B6C
S11304F0990B0E94C0048EEF90E00E94AA0482E04F
S113050001C083E0DF91CF910895CF92DF92EF9203
S1130510FF920F931F93CF93DF9300D000D000D0AE
S1130520CDB7DEB70E9405088A3209F081C086E0A3
S113053091E00E9435088AE20E9400080E949D040E
S11305408AE20E9430048E010F5F1F4F6E0187E024
S1130550C80ED11C7801C8010E940908813079F4C1
S11305608DE00E94000889E291E00E9435088DE048
S11305700E9400080E949D040E94DF0459C0F801F3
S113058081918F010E940008F70180810E9430044C
S113059080E090E00E94DF060C151D05D9F68DE081
S11305A00E9400088981893649F48A818A3231F4AB
S11305B08C818A3219F48E81833239F08BE391E095
S11305C00E9435080E94DF0433C08B81813331F4EB
S11305D065E08D810E944502182F0FC0823331F4EB
S11305E066E08D810E944502182F07C0833339F4D9
S11305F067E08D810E944502182F133029F485E5A8
S113060091E00E94350812C081EF90E00E94350805
S11306108B810E940008113029F484E791E00E9444
S1130620350804C082E891E00E9435080E94DF0486
S113063026960FB6F894DEBF0FBECDBFDF91CF91E3
S11306401F910F91FF90EF90DF90CF9008951F932B
S1130650CF93DF93C82FD62F172F0E949207812F95
S113066080650E94B3078D2F0E94D3078C2F0E94B0
S1130670D3070E94F107DF91CF911F9108950F9343
S11306801F93CF93DF938C01D62FC72FC0650E9491
S113069092078C2F0E94B3078D2F0E94D3070E94CC
S11306A0A2078C2F0E94C307C8010E94DD070E9485
S11306B0F107DF91CF911F910F91089541E062E01E
S11306C082E00E94210541E063E082E00E9421056E
S11306D041E064E082E00E94210541E062E082E0C2
S11306E00E944F0541E063E082E00E944F0541E033
S11306F064E082E00E944F0540E061E080E00E94F7
S1130700210540E062E080E00E94210540E063E0D2
S113071080E00E94210540E064E080E00E94210521
S113072041E061E080E00E944F0541E062E080E04A
S11307300E944F0541E063E080E00E944F0541E0E4
S113074064E080E00E944F0508954F925F926F929B
S11307507F928F929F92AF92BF92CF92DF92EF924D
S1130760FF920F931F93CF93DF93CDB7DEB76397B9
S11307700FB6F894DEBF0FBECDBF22E0298393E00D
S11307809A8384E08B8331E03C832D839E838F8323
S11307908CE0E2E6F0E0DE01189601900D928A9575
S11307A0E1F7CE0101964C01A12CB12C3501F401E5
S11307B041904F0140E0642D82E00E944F057E018C
S11307C0F4E0EF0EF11C00E010E06801F701519035
S11307D07F01652D80E00E949D05811117C0C8012D
S11307E0880F991FC80ED91E81E090E08C0F9D1FC1
S11307F0C80ED91EF601E60DF71D1781652D80E0A0
S11308000E949D058823D1F3812F13C00F5F1F4FD2
S113081004301105D1F641E0642D82E00E944F05B9
S11308209FEFA91AB90AE3E0AE16B10409F0BECFEE
S11308308AEA63960FB6F894DEBF0FBECDBFDF9190
S1130840CF911F910F91FF90EF90DF90CF90BF90C9
S1130850AF909F908F907F906F905F904F9008958E
S1130860CF93C82F41E065E080E00E944F0540E04F
S113087066E080E00E944F056C2F81E00E948D05A8
S113088041E067E080E00E944F058FE99FE0019717
S1130890F1F700C0000040E067E080E00E944F05EF
S11308A0CF910895CF93C82F40E065E080E00E9487
S11308B04F0540E066E080E00E944F056C2F81E028
S11308C00E948D0541E067E080E00E944F058FE9BA
S11308D09FE00197F1F700C0000040E067E080E08E
S11308E00E944F05CF9108956FEF81E00E947D052E
S11308F041E065E080E00E94210541E066E080E09F
S11309000E94210541E067E080E00E9421052FEF6D
S113091089EF90E0215080409040E1F700C0000052
S113092088E30E9452048CE00E94520481E00E94F9
S1130930520486E00E945204089581E00E94520409
S1130940089590E4899F600D1124862F80680E9489
S1130950520408950F931F93CF93FC018081882341
S113096059F08F01C0E00E943004CF5FF801EC0F12
S1130970F11D80818111F7CFCF911F910F910895BF
S1130980CF93DF93CDB7DEB72A970FB6F894DEBFC7
S11309900FBECDBFDC01CB014AE0BE016F5F7F4FCC
S11309A00E94840ACE0101960E94AA042A960FB6D8
S11309B0F894DEBF0FBECDBFDF91CF9108956AE0FA
S11309C082E00E946B0680E29EE40E94D9060895AC
S11309D0853B08F084EB682F70E080E090E00E9493
S11309E08B0921E63BE046EB5BE30E94170A20E01B
S11309F030E040E85FE30E947C0820E030E04AE712
S1130A0054E40E94170A0E945A0970939701609354
S1130A109601CB010E94DC0608953E9A3F983D9AC8
S1130A203098319A329A379A089597B1907E97B94F
S1130A3097B1892B87B9369A349BFECF349A85B106
S1130A400895813049F028F0823049F0833051F024
S1130A500BC0EAE3F0E008C0E7E3F0E005C0E4E33C
S1130A60F0E002C0E1E3F0E0442369F04130B1F486
S1130A70208181E090E002C0880F991F6A95E2F717
S1130A80822B80830895208181E090E002C0880F4A
S1130A90991F6A95E2F780958223808308958130B7
S1130AA049F028F0823049F0833051F00BC0EBE379
S1130AB0F0E008C0E8E3F0E005C0E5E3F0E002C0E0
S1130AC0E2E3F0E0442369F04130B1F4208181E0B5
S1130AD090E002C0880F991F6A95E2F7822B808309
S1130AE00895208181E090E002C0880F991F6A95E3
S1130AF0E2F78095822380830895813041F028F0C5
S1130B00823039F0833039F008956ABB089567BBA9
S1130B10089564BB089561BB0895813041F028F0C5
S1130B20823039F0833039F008956BBB089568BB87
S1130B30089565BB089562BB0895813081F028F063
S1130B408230B9F08330F9F027C089B390E002C055
S1130B50959587956A95E2F7982F91701DC086B395
S1130B6090E002C0959587956A95E2F7982F917069
S1130B7013C083B390E002C0959587956A95E2F718
S1130B80982F917009C080B390E002C09595879525
S1130B906A95E2F7982F9170892F08951F920F920A
S1130BA00FB60F9211242F933F934F935F936F933C
S1130BB07F938F939F93AF93BF93EF93FF93E091B2
S1130BC09C01F0919D01309709F00995FF91EF91F7
S1130BD0BF91AF919F918F917F916F915F914F9151
S1130BE03F912F910F900FBE0F901F9018951F9259
S1130BF00F920FB60F9211242F933F934F935F934D
S1130C006F937F938F939F93AF93BF93EF93FF93D0
S1130C10E0919A01F0919B01309709F00995FF91B9
S1130C20EF91BF91AF919F918F917F916F915F9160
S1130C304F913F912F910F900FBE0F901F901895D9
S1130C401F920F920FB60F9211242F933F934F933D
S1130C505F936F937F938F939F93AF93BF93EF9320
S1130C60FF93E0919801F0919901309709F009956B
S1130C70FF91EF91BF91AF919F918F917F916F9170
S1130C805F914F913F912F910F900FBE0F901F9046
S1130C9018958FB780688FBF08950F931F938B01AA
S1130CA09C01672B682B692B69F412C00197F1F73B
S1130CB04F5F5F4F6F4F7F4F0417150726073707A6
S1130CC021F406C040E050E0BA018EE591E0EECF99
S1130CD01F910F9108958130A1F018F0823009F12D
S1130CE032C08FB58E7F8FBD8FB58D7F8FBD8EB592
S1130CF0877F8EBD8EB58F7E8EBD89B7846089BF98
S1130D0022C08FB58E7F8FBD8FB58D7F8FBD8EB581
S1130D1088608EBD8EB58F7E8EBD89B7806189BF98
S1130D2012C08FB58F7B8FBD8FB580688FBD8FB597
S1130D308E7F8FBD8FB582608FBD8EB588608EBD6E
S1130D408EB580618EBDE0E0F0E04DECA1E0B0E056
S1130D50649F812D1124869586958695880F982FFA
S1130D60990F990F890F962F981B913059F42EB52E
S1130D70CD010E2E02C0880F991F0A94E2F7822B30
S1130D808EBD0CC09EB59D010E2E02C0220F331FD6
S1130D900A94E2F7822F809589238EBD649F612D8A
S1130DA011246695669566953196E330F10581F6D2
S1130DB0089597BD86BD08959BBD8ABD08959DBDC8
S1130DC08CBD08951F920F920FB60F9211242F938A
S1130DD03F934F935F936F937F938F939F93AF93BF
S1130DE0BF93EF93FF93E091A401F091A501309795
S1130DF009F00995FF91EF91BF91AF919F918F9168
S1130E007F916F915F914F913F912F910F900FBE02
S1130E100F901F9018951F920F920FB60F921124E6
S1130E202F933F934F935F936F937F938F939F93EE
S1130E30AF93BF93EF93FF93E091A201F091A301CD
S1130E40309709F00995FF91EF91BF91AF919F9170
S1130E508F917F916F915F914F913F912F910F905F
S1130E600FBE0F901F9018951F920F920FB60F92FE
S1130E7011242F933F934F935F936F937F938F939B
S1130E809F93AF93BF93EF93FF93E091A001F091F1
S1130E90A101309709F00995FF91EF91BF91AF91AE
S1130EA09F918F917F916F915F914F913F912F917E
S1130EB00F900FBE0F901F9018951F920F920FB6B0
S1130EC00F9211242F933F934F935F936F937F93CC
S1130ED08F939F93AF93BF93EF93FF93E0919E0102
S1130EE0F0919F01309709F00995FF91EF91BF911F
S1130EF0AF919F918F917F916F915F914F913F91AE
S1130F002F910F900FBE0F901F90189596E990B9EE
S1130F1009980898882311F0880F82B986B78460ED
S1130F2086BF089586B7806286BF86B7806886BF0D
S1130F3006B607FEFDCF91B1987F81E0983009F4A1
S1130F4080E0089586B7806286BF86B7806886BFD2
S1130F5006B607FEFDCF81B1887F803111F082E0B3
S1130F60089580E00895880F83B9189884E886BFAF
S1130F7006B607FEFDCF81B1887F883111F083E08A
S1130F80089580E00895880F83B9189A84E886BF8D
S1130F9006B607FEFDCF81B1887F803411F084E06E
S1130FA0089580E0089583B986B7806886BF06B641
S1130FB007FEFDCF81B185E00895FC0196B79064EA
S1130FC096BF96B7906896BF06B607FEFDCF91B15F
S1130FD0987F903521F483B1808380E0089586E082
S1130FE0089586B7806186BF86B7806886BF0895F6
S1130FF0529886E880BD83E389B9539A549A089538
S11310005D9BFECF5D9A8CB908955F9BFECF8CB13A
S11310100895FC011DBC1CBC8FB58E7F8FBD9FB590
S11310209D7F9FBD9EB5977F9EBD9EB59F7E9EBDB5
S11310309EB591609EBD9EB59D7F9EBD9EB59460FC
S11310409EBD0BC02CB53DB520343C4930F05F9AB1
S11310508EB5887F8EBD81E008955F9BF3CF8CB100
S113106080831DBC1CBC80E008950F931F93CF9315
S1131070FC018081882359F08F01C0E00E940008A0
S1131080CF5FF801EC0FF11D80818111F7CFCF9173
S11310901F910F9108959093A7018093A60108953D
S11310A0579A08951F920F920FB60F9211242F93FF
S11310B03F934F935F936F937F938F939F93AF93DC
S11310C0BF93EF93FF93E091A601F091A7013097AE
S11310D009F00995FF91EF91BF91AF919F918F9185
S11310E07F916F915F914F913F912F910F900FBE20
S11310F00F901F9018955058BB27AA270E94930859
S11311000C94DD090E94CF0938F00E94D60920F022
S113111039F49F3F19F426F40C94CC090EF4E095AD
S1131120E7FB0C94C609E92F0E94EE0958F3BA179D
S1131130620773078407950720F079F4A6F50C94E9
S1131140100A0EF4E0950B2EBA2FA02D0B01B90155
S113115090010C01CA01A0011124FF27591B99F029
S1131160593F50F4503E68F11A16F040A22F232F35
S1131170342F4427585FF3CF469537952795A79585
S1131180F0405395C9F77EF41F16BA0B620B730B2C
S1131190840BBAF09150A1F0FF0FBB1F661F771F9D
S11311A0881FC2F70EC0BA0F621F731F841F48F452
S11311B0879577956795B795F7959E3F08F0B0CFDB
S11311C09395880F08F09927EE0F979587950895C2
S11311D00E94FC080C94DD090E94D60958F00E9474
S11311E0CF0940F029F45F3F29F00C94C60951114E
S11311F00C94110A0C94CC090E94EE0968F399230B
S1131200B1F3552391F3951B550BBB27AA276217FE
S11312107307840738F09F5F5F4F220F331F441F0B
S1131220AA1FA9F335D00E2E3AF0E0E832D091503F
S11312305040E695001CCAF72BD0FE2F29D0660F2C
S1131240771F881FBB1F261737074807AB07B0E86F
S113125009F0BB0B802DBF01FF2793585F4F3AF075
S11312609E3F510578F00C94C6090C94110A5F3F17
S1131270E4F3983ED4F3869577956795B795F795FB
S11312809F5FC9F7880F911D9695879597F90895E3
S1131290E1E0660F771F881FBB1F6217730784077F
S11312A0BA0720F0621B730B840BBA0BEE1F88F78E
S11312B0E09508950E94F60988F09F5798F0B92F99
S11312C09927B751B0F0E1F0660F771F881F991F77
S11312D01AF0BA95C9F714C0B13091F00E94100AFF
S11312E0B1E008950C94100A672F782F8827B85F0F
S11312F039F0B93FCCF3869577956795B395D9F7CF
S11313003EF490958095709561957F4F8F4F9F4FD8
S11313100895E89409C097FB3EF4909580957095E4
S113132061957F4F8F4F9F4F9923A9F0F92F96E92D
S1131330BB279395F695879577956795B795F111A2
S1131340F8CFFAF4BB0F11F460FF1BC06F5F7F4F3F
S11313508F4F9F4F16C0882311F096E911C0772351
S113136021F09EE8872F762F05C0662371F096E85A
S1131370862F70E060E02AF09A95660F771F881F29
S1131380DAF7880F9695879597F9089597F99F67E7
S113139080E870E060E008959FEF80EC08950024F9
S11313A00A941616170618060906089500240A94C6
S11313B012161306140605060895092E0394000C4C
S11313C011F4882352F0BB0F40F4BF2B11F460FFDB
S11313D004C06F5F7F4F8F4F9F4F089557FD905804
S11313E0440F551F59F05F3F71F04795880F97FBE5
S11313F0991F61F09F3F79F087950895121613069F
S11314001406551FF2CF4695F1DF08C016161706CD
S11314101806991FF1CF8695710561050894089502
S1131420E894BB2766277727CB0197F908950E9494
S11314302A0A0C94DD090E94CF0938F00E94D609CB
S113144020F0952311F00C94C6090C94CC091124B6
S11314500C94110A0E94EE0970F3959FC1F3950F45
S113146050E0551F629FF001729FBB27F00DB11D24
S1131470639FAA27F00DB11DAA1F649F6627B00DB4
S1131480A11D661F829F2227B00DA11D621F739F9D
S1131490B00DA11D621F839FA00D611D221F749FAB
S11314A03327A00D611D231F849F600D211D822FF2
S11314B0762F6A2F11249F5750409AF0F1F0882319
S11314C04AF0EE0FFF1FBB1F661F771F881F915046
S11314D05040A9F79E3F510580F00C94C6090C9426
S11314E0110A5F3FE4F3983ED4F3869577956795A8
S11314F0B795F795E7959F5FC1F7FE2B880F911D70
S11315009695879597F90895BB274A3031F4992326
S113151022F4BDE2909581959F4F0C94900ABB27CD
S1131520FB015527AA27880F991FAA1FA41710F09B
S1131530A41B83955051B9F7A05DAA3308F0A95DA7
S1131540A193009779F7B111B1931192CB010C9447
S1131550A90ADC01FC01672F71917723E1F7329727
S113156004C07C916D9370836291AE17BF07C8F37A
S10915700895F894FFCF7A
S113157632000708090405060102030D000C536531
S113158674206E657720706173733A004552524F2A
S1131596522021212121004D617820446967697414
S11315A6732069732034004C6F636B657220697312
S11315B6206F70656E6564004C6F636B657220699D
S11315C67320436C6F7365640057726F6E67207087
S11315D6617373776F72642021007061737320697D
S11315E6732075706461746564004669727374204F
S11315F652756E0053797374656D206973204F6E4E
S113160600524F4F4D2000206973204F4E00206931
S113161673204F46460045787065637465642049B7
S11316264E5020466F726D61742022202A692A78F2
S11316362A78232022203A0D0023234552524F5262
S11316463A2054696D65204F7574002323494E432F
S11316564F525245435420494E50555420464F52FA
S11316664D41540D002323494E434F525245435492
S113167620524F4F4D204E756D206F72205374616A
S113168674650D00204C69676874204973204F4EB9
S11316960D00204C69676874204973204F46460D37
S10516A600003E
S9030000FC
