:100000000C942A000C9464050C948D050C94B60590
:100010000C9447000C9447000C94CA060C94F30609
:100020000C9447000C9447000C94A1060C9478069D
:100030000C9447000C94E8070C9447000C9447007C
:100040000C9447000C9447000C9447000C94470014
:100050000C94470011241FBECFE5D8E0DEBFCDBF12
:1000600011E0A0E6B0E0E2EAF4E102C005900D92F2
:10007000A237B107D9F721E0A2E7B1E001C01D9294
:10008000AC38B207E1F70E949B010C944F0A0C9424
:10009000000080E00E94AB0490E0BC01660F771F77
:1000A000660F771F680F791F072E000C880B990BBE
:1000B0000E9421092AE037ED43E250E40E947E08C5
:1000C0000E94F008633258F041E066E083E00E944D
:1000D000E50440E067E083E00E94E50408956931AB
:1000E00058F040E066E083E00E94E50441E067E00C
:1000F00083E00E94E504089540E066E083E00E940A
:10010000E50440E067E083E00E94E50408959091F3
:10011000890180918A0190938B01809388010895D1
:10012000CF930E943B03C82F8D3009F074C02091FB
:100130007401309175018091890190918A0128178D
:10014000390709F05FC00E94330410928A011092AF
:1001500089011092750110927401109273018EE65C
:1001600090E00E9440040E943B03C82F80917301DD
:100170008530A1F40E9433048CE790E00E94400493
:1001800060E081E00E94370487E890E00E9440042C
:100190001092730110928A0110928901CD3049F4B6
:1001A000109273010E94330410928A011092890107
:1001B000DACFCA3AC1F2CC3009F486C0809173011B
:1001C000811102C00E9433048AE20E94C60380911A
:1001D00073018F5F809373018091890190918A01EF
:1001E0009C01220F331F880F991F880F991F880FBA
:1001F000991F820F931F8C0F911D90938A018093FA
:100200008901B1CF0E9433041092750110927401DC
:100210001092730163C08C3089F50E9433042091E1
:100220007401309175018091890190918A0128179C
:100230003907C9F48091720181110BC087E990E000
:100240000E94400484EB0E947E0481E0809372014E
:100250000EC086EA90E00E94400480E00E947E0486
:100260001092720104C085EB90E00E94400410924D
:100270007501109274011092730130C08A3A71F1C5
:1002800080917301811102C00E9433048AE20E94AE
:10029000C603809173018F5F809373018091740115
:1002A000909175019C01220F331F880F991F880FB1
:1002B000991F880F991F820F931F8C0F911D909388
:1002C0007501809374010AC00E94330486EC90E0AB
:1002D0000E944004109273010E948700CF910895FC
:1002E00060916000709161008BE891E00E94D502FE
:1002F0006CE271E080E090E00E94E30560916000B4
:1003000070916100665F7F4F88E891E00E94D5029E
:100310006CE271E080E090E00E94E305809188014A
:1003200090E0982F882720918B01822B90938A014F
:10033000809389010895CF93DF931F92CDB7DEB7E5
:1003400019820E94A30441E066E083E00E94B704A2
:1003500041E067E083E00E94B7040E940A040E9423
:10036000F40241E065E083E00E94B7040E94750456
:1003700080E00E941C0765E070E0CE0101960E94BB
:10038000D50289818C31C9F086ED90E00E9440044D
:100390008CE1898382ED94E090938A0180938901B6
:1003A0000E94870065E070E089810E94BD026CE2D6
:1003B00071E080E090E00E94E3050E94700160918E
:1003C000890170918A0180E090E00E9456040E94A9
:1003D0008E078BE192E00E94E1070E94E6070E94EF
:1003E000DF0541E065E082E00E94B70441E066E09D
:1003F00082E00E94B70441E067E082E00E94B70417
:100400000E94DF050E94E6070E9490000E944900BA
:10041000F7CF813331F441E082E00E94E50481E0CE
:100420000895803331F440E082E00E94E50482E0E8
:10043000089583E00895CF92DF92EF92FF920F9399
:100440001F93CF93DF9300D000D000D0CDB7DEB79D
:100450000E949B078A3209F081C080EE90E00E94E2
:10046000CB078AE20E9496070E9433048AE20E9428
:10047000C6038E010F5F1F4F6E0187E0C80ED11CAF
:100480007801C8010E949F07813079F48DE00E94B5
:10049000960783E091E00E94CB078DE00E949607CB
:1004A0000E9433040E94750459C0F80181918F01A4
:1004B0000E949607F70180810E94C60380E090E0C9
:1004C0000E9475060C151D05D9F68DE00E94960751
:1004D0008981893649F48A818A3231F48C818A3261
:1004E00019F48E81833239F085E191E00E94CB07C7
:1004F0000E94750433C08B81813331F465E08D81B6
:100500000E940902182F0FC0823331F466E08D81FA
:100510000E940902182F07C0833339F467E08D81E8
:100520000E940902182F133029F48FE291E00E94F3
:10053000CB0712C08EE491E00E94CB078B810E9412
:100540009607113029F484E591E00E94CB0704C09E
:1005500082E691E00E94CB070E94750426960FB6B2
:10056000F894DEBF0FBECDBFDF91CF911F910F91E9
:10057000FF90EF90DF90CF9008951F93CF93DF937C
:10058000C82FD62F172F0E942807812F80650E9421
:1005900049078D2F0E9469078C2F0E9469070E94CE
:1005A0008707DF91CF911F9108950F931F93CF93EA
:1005B000DF938C01D62FC72FC0650E9428078C2F90
:1005C0000E9449078D2F0E9469070E9438078C2FCF
:1005D0000E945907C8010E9473070E948707DF9194
:1005E000CF911F910F91089541E062E082E00E9457
:1005F000B70441E063E082E00E94B70441E064E0B8
:1006000082E00E94B70441E062E082E00E94E504DB
:1006100041E063E082E00E94E50441E064E082E0C2
:100620000E94E50440E061E080E00E94B70440E001
:1006300062E080E00E94B70440E063E080E00E9456
:10064000B70440E064E080E00E94B70441E061E06C
:1006500080E00E94E50441E062E080E00E94E50461
:1006600041E063E080E00E94E50441E064E080E076
:100670000E94E50408954F925F926F927F928F924D
:100680009F92AF92BF92CF92DF92EF92FF920F9321
:100690001F93CF93DF93CDB7DEB763970FB6F89470
:1006A000DEBF0FBECDBF22E0298393E09A8384E0B2
:1006B0008B8331E03C832D839E838F838CE0E2E645
:1006C000F0E0DE01189601900D928A95E1F7CE01D7
:1006D00001964C01A12CB12C3501F40141904F0140
:1006E00040E0642D82E00E94E5047E01F4E0EF0E1C
:1006F000F11C00E010E06801F70151907F01652DC9
:1007000080E00E943305811117C0C801880F991F2E
:10071000C80ED91E81E090E08C0F9D1FC80ED91E17
:10072000F601E60DF71D1781652D80E00E94330567
:100730008823D1F3812F13C00F5F1F4F04301105A1
:10074000D1F641E0642D82E00E94E5049FEFA91AF2
:10075000B90AE3E0AE16B10409F0BECF8AEA6396A7
:100760000FB6F894DEBF0FBECDBFDF91CF911F91C2
:100770000F91FF90EF90DF90CF90BF90AF909F9040
:100780008F907F906F905F904F900895CF93C82F78
:1007900041E065E080E00E94E50440E066E080E042
:1007A0000E94E5046C2F81E00E94230541E067E090
:1007B00080E00E94E5048FE99FE00197F1F700C017
:1007C000000040E067E080E00E94E504CF910895DA
:1007D000CF93C82F40E065E080E00E94E50440E050
:1007E00066E080E00E94E5046C2F81E00E94230512
:1007F00041E067E080E00E94E5048FE99FE0019717
:10080000F1F700C0000040E067E080E00E94E504EE
:10081000CF9108956FEF81E00E94130541E065E0FC
:1008200080E00E94B70441E066E080E00E94B704E7
:1008300041E067E080E00E94B7042FEF89EF90E08D
:10084000215080409040E1F700C0000088E30E9402
:10085000E8038CE00E94E80381E00E94E80386E060
:100860000E94E803089581E00E94E803089590E45F
:10087000899F600D1124862F80680E94E8030895E7
:100880000F931F93CF93FC018081882359F08F0130
:10089000C0E00E94C603CF5FF801EC0FF11D80811C
:1008A0008111F7CFCF911F910F910895CF93DF93CF
:1008B000CDB7DEB72A970FB6F894DEBF0FBECDBF17
:1008C000DC01CB014AE0BE016F5F7F4F0E941A0A34
:1008D000CE0101960E9440042A960FB6F894DEBF1E
:1008E0000FBECDBFDF91CF9108956AE082E00E94F4
:1008F000010680E29EE40E946F060895853B08F0A1
:1009000084EB682F70E080E090E00E94210921E6EE
:100910003BE046EB5BE30E94AD0920E030E040E8BD
:100920005FE30E94120820E030E04AE754E40E94AE
:10093000AD090E94F0087093770160937601CB01B6
:100940000E94720608953E9A3F983D9A3098319AD7
:10095000329A379A089597B1907E97B997B1892BBB
:1009600087B9369A349BFECF349A85B10895813089
:1009700049F028F0823049F0833051F00BC0EAE3AF
:10098000F0E008C0E7E3F0E005C0E4E3F0E002C017
:10099000E1E3F0E0442369F04130B1F4208181E0EB
:1009A00090E002C0880F991F6A95E2F7822B80833E
:1009B0000895208181E090E002C0880F991F6A9518
:1009C000E2F78095822380830895813049F028F0F2
:1009D000823049F0833051F00BC0EBE3F0E008C007
:1009E000E8E3F0E005C0E5E3F0E002C0E2E3F0E0B8
:1009F000442369F04130B1F4208181E090E002C0ED
:100A0000880F991F6A95E2F7822B808308952081D1
:100A100081E090E002C0880F991F6A95E2F7809507
:100A2000822380830895813041F028F0823039F0AC
:100A3000833039F008956ABB089567BB089564BB9D
:100A4000089561BB0895813041F028F0823039F07B
:100A5000833039F008956BBB089568BB089565BB7A
:100A6000089562BB0895813081F028F08230B9F09A
:100A70008330F9F027C089B390E002C0959587953F
:100A80006A95E2F7982F91701DC086B390E002C07E
:100A9000959587956A95E2F7982F917013C083B367
:100AA00090E002C0959587956A95E2F7982F91702E
:100AB00009C080B390E002C0959587956A95E2F7EA
:100AC000982F9170892F08951F920F920FB60F9251
:100AD00011242F933F934F935F936F937F938F9343
:100AE0009F93AF93BF93EF93FF93E0917C01F091BD
:100AF0007D01309709F00995FF91EF91BF91AF917A
:100B00009F918F917F916F915F914F913F912F9125
:100B10000F900FBE0F901F9018951F920F920FB657
:100B20000F9211242F933F934F935F936F937F9373
:100B30008F939F93AF93BF93EF93FF93E0917A01CD
:100B4000F0917B01309709F00995FF91EF91BF91EA
:100B5000AF919F918F917F916F915F914F913F9155
:100B60002F910F900FBE0F901F9018951F920F920C
:100B70000FB60F9211242F933F934F935F936F9370
:100B80007F938F939F93AF93BF93EF93FF93E091E6
:100B90007801F0917901309709F00995FF91EF9173
:100BA000BF91AF919F918F917F916F915F914F9185
:100BB0003F912F910F900FBE0F901F9018958FB7F8
:100BC00080688FBF08950F931F938B019C01672B43
:100BD000682B692B69F412C00197F1F74F5F5F4FE3
:100BE0006F4F7F4F041715072607370721F406C0FC
:100BF00040E050E0BA018EE591E0EECF1F910F91F9
:100C000008958130A1F018F0823009F132C08FB51B
:100C10008E7F8FBD8FB58D7F8FBD8EB5877F8EBD4B
:100C20008EB58F7E8EBD89B7846089BF22C08FB597
:100C30008E7F8FBD8FB58D7F8FBD8EB588608EBD49
:100C40008EB58F7E8EBD89B7806189BF12C08FB58A
:100C50008F7B8FBD8FB580688FBD8FB58E7F8FBD29
:100C60008FB582608FBD8EB588608EBD8EB5806178
:100C70008EBDE0E0F0E04DECA1E0B0E0649F812D9E
:100C80001124869586958695880F982F990F990F30
:100C9000890F962F981B913059F42EB5CD010E2E49
:100CA00002C0880F991F0A94E2F7822B8EBD0CC0F8
:100CB0009EB59D010E2E02C0220F331F0A94E2F74B
:100CC000822F809589238EBD649F612D11246695A6
:100CD000669566953196E330F10581F6089597BDE6
:100CE00086BD08959BBD8ABD08959DBD8CBD0895A8
:100CF0001F920F920FB60F9211242F933F934F9391
:100D00005F936F937F938F939F93AF93BF93EF9373
:100D1000FF93E0918401F0918501309709F00995E6
:100D2000FF91EF91BF91AF919F918F917F916F91C3
:100D30005F914F913F912F910F900FBE0F901F9099
:100D400018951F920F920FB60F9211242F933F9375
:100D50004F935F936F937F938F939F93AF93BF93C3
:100D6000EF93FF93E0918201F0918301309709F0B6
:100D70000995FF91EF91BF91AF919F918F917F91D5
:100D80006F915F914F913F912F910F900FBE0F90F8
:100D90001F9018951F920F920FB60F9211242F9348
:100DA0003F934F935F936F937F938F939F93AF93F3
:100DB000BF93EF93FF93E0918001F0918101309711
:100DC00009F00995FF91EF91BF91AF919F918F919C
:100DD0007F916F915F914F913F912F910F900FBE37
:100DE0000F901F9018951F920F920FB60F9211241B
:100DF0002F933F934F935F936F937F938F939F9323
:100E0000AF93BF93EF93FF93E0917E01F0917F0149
:100E1000309709F00995FF91EF91BF91AF919F91A4
:100E20008F917F916F915F914F913F912F910F9093
:100E30000FBE0F901F90189596E990B909980898E1
:100E4000882311F0880F82B986B7846086BF089521
:100E500086B7806286BF86B7806886BF06B607FE03
:100E6000FDCF91B1987F81E0983009F480E008953A
:100E700086B7806286BF86B7806886BF06B607FEE3
:100E8000FDCF81B1887F803111F082E0089580E04C
:100E90000895880F83B9189884E886BF06B607FEC0
:100EA000FDCF81B1887F883111F083E0089580E023
:100EB0000895880F83B9189A84E886BF06B607FE9E
:100EC000FDCF81B1887F803411F084E0089580E007
:100ED000089583B986B7806886BF06B607FEFDCF42
:100EE00081B185E00895FC0196B7906496BF96B7EE
:100EF000906896BF06B607FEFDCF91B1987F9035FA
:100F000021F483B1808380E0089586E0089586B758
:100F1000806186BF86B7806886BF0895529886E84C
:100F200080BD83E389B9539A549A08955D9BFECF9F
:100F30005D9A8CB908955F9BFECF8CB10895FC013A
:100F40001DBC1CBC8FB58E7F8FBD9FB59D7F9FBD87
:100F50009EB5977F9EBD9EB59F7E9EBD9EB59160BE
:100F60009EBD9EB59D7F9EBD9EB594609EBD0BC0EF
:100F70002CB53DB520343C4930F05F9A8EB5887F62
:100F80008EBD81E008955F9BF3CF8CB180831DBC43
:100F90001CBC80E008950F931F93CF93FC018081C8
:100FA000882359F08F01C0E00E949607CF5FF801B7
:100FB000EC0FF11D80818111F7CFCF911F910F911F
:100FC000089590938701809386010895579A089514
:100FD0001F920F920FB60F9211242F933F934F93AE
:100FE0005F936F937F938F939F93AF93BF93EF9391
:100FF000FF93E0918601F0918701309709F0099500
:10100000FF91EF91BF91AF919F918F917F916F91E0
:101010005F914F913F912F910F900FBE0F901F90B6
:1010200018955058BB27AA270E9429080C947309C9
:101030000E94650938F00E946C0920F039F49F3F46
:1010400019F426F40C9462090EF4E095E7FB0C9475
:101050005C09E92F0E94840958F3BA1762077307E5
:101060008407950720F079F4A6F50C94A6090EF4F0
:10107000E0950B2EBA2FA02D0B01B90190010C01A8
:10108000CA01A0011124FF27591B99F0593F50F4C0
:10109000503E68F11A16F040A22F232F342F442718
:1010A000585FF3CF469537952795A795F040539510
:1010B000C9F77EF41F16BA0B620B730B840BBAF0E0
:1010C0009150A1F0FF0FBB1F661F771F881FC2F74B
:1010D0000EC0BA0F621F731F841F48F4879577955F
:1010E0006795B795F7959E3F08F0B0CF9395880F19
:1010F00008F09927EE0F9795879508950E9492081A
:101100000C9473090E946C0958F00E94650940F024
:1011100029F45F3F29F00C945C0951110C94A70944
:101120000C9462090E94840968F39923B1F3552352
:1011300091F3951B550BBB27AA27621773078407EA
:1011400038F09F5F5F4F220F331F441FAA1FA9F380
:1011500035D00E2E3AF0E0E832D091505040E6956E
:10116000001CCAF72BD0FE2F29D0660F771F881FCF
:10117000BB1F261737074807AB07B0E809F0BB0BC2
:10118000802DBF01FF2793585F4F3AF09E3F5105D6
:1011900078F00C945C090C94A7095F3FE4F3983E47
:1011A000D4F3869577956795B795F7959F5FC9F7BF
:1011B000880F911D9695879597F90895E1E0660F40
:1011C000771F881FBB1F621773078407BA0720F0B9
:1011D000621B730B840BBA0BEE1F88F7E095089522
:1011E0000E948C0988F09F5798F0B92F9927B75122
:1011F000B0F0E1F0660F771F881F991F1AF0BA95BB
:10120000C9F714C0B13091F00E94A609B1E0089569
:101210000C94A609672F782F8827B85F39F0B93F5B
:10122000CCF3869577956795B395D9F73EF490956D
:101230008095709561957F4F8F4F9F4F0895E894EB
:1012400009C097FB3EF490958095709561957F4F0E
:101250008F4F9F4F9923A9F0F92F96E9BB279395BC
:10126000F695879577956795B795F111F8CFFAF4CC
:10127000BB0F11F460FF1BC06F5F7F4F8F4F9F4FFD
:1012800016C0882311F096E911C0772321F09EE85B
:10129000872F762F05C0662371F096E8862F70E0C1
:1012A00060E02AF09A95660F771F881FDAF7880F9B
:1012B0009695879597F9089597F99F6780E870E06C
:1012C00060E008959FEF80EC089500240A941616BC
:1012D000170618060906089500240A941216130624
:1012E000140605060895092E0394000C11F48823B2
:1012F00052F0BB0F40F4BF2B11F460FF04C06F5FCE
:101300007F4F8F4F9F4F089557FD9058440F551FA3
:1013100059F05F3F71F04795880F97FB991F61F077
:101320009F3F79F087950895121613061406551FEE
:10133000F2CF4695F1DF08C0161617061806991F5A
:10134000F1CF86957105610508940895E894BB274F
:1013500066277727CB0197F908950E94C0090C945E
:1013600073090E94650938F00E946C0920F09523EA
:1013700011F00C945C090C94620911240C94A709D7
:101380000E94840970F3959FC1F3950F50E0551F9B
:10139000629FF001729FBB27F00DB11D639FAA27CA
:1013A000F00DB11DAA1F649F6627B00DA11D661F19
:1013B000829F2227B00DA11D621F739FB00DA11D3A
:1013C000621F839FA00D611D221F749F3327A00DF4
:1013D000611D231F849F600D211D822F762F6A2F90
:1013E00011249F5750409AF0F1F088234AF0EE0FF5
:1013F000FF1FBB1F661F771F881F91505040A9F722
:101400009E3F510580F00C945C090C94A7095F3F46
:10141000E4F3983ED4F3869577956795B795F7955D
:10142000E7959F5FC1F7FE2B880F911D96958795D5
:1014300097F90895BB274A3031F4992322F4BDE28D
:10144000909581959F4F0C94260ABB27FB01552749
:10145000AA27880F991FAA1FA41710F0A41B839511
:101460005051B9F7A05DAA3308F0A95DA193009788
:1014700079F7B111B1931192CB010C943F0ADC01C1
:10148000FC01672F71917723E1F7329704C07C91BB
:101490006D9370836291AE17BF07C8F30895F894F7
:0214A000FFCF7C
:1014A20032000708090405060102030D000C53650A
:1014B20074206E657720706173733A004552524F03
:1014C200522021212121004D6178204469676974ED
:1014D20073206973203400446F6F72206973206F28
:1014E20070656E656400446F6F7220697320436C8F
:1014F2006F7365640057726F6E67207061737377E4
:101502006F7264202100706173732069732075709B
:1015120064617465640046697273742052756E006A
:10152200457870656374656420494E5020466F7239
:101532006D61742022202A692A782A7823202220A9
:101542003A0D0023234552524F523A2054696D6599
:10155200204F7574002323494E434F525245435442
:1015620020494E50555420464F524D41540D0023B0
:1015720023494E434F525245435420524F4F4D2020
:101582004E756D206F722053746174650D00524F59
:101592004F4D2000204C69676874204973204F4EDC
:1015A2000D00204C69676874204973204F46460D30
:0215B200000037
:00000001FF
