:100000000C942A000C94CF050C94F8050C9421064E
:100010000C9447000C9447000C9432070C945B0737
:100020000C9447000C9447000C9409070C94E006CC
:100030000C9447000C9450080C9447000C94470013
:100040000C9447000C9447000C9447000C94470014
:100050000C94470011241FBECFE5D8E0DEBFCDBF12
:1000600011E0A0E6B0E0E2E7F5E102C005900D92F4
:10007000AE38B107D9F721E0AEE8B1E001C01D927A
:10008000A83AB207E1F70E94DD010C94B70A0C947C
:10009000000080E00E94160590E0BC01660F771F0B
:1000A000660F771F680F791F072E000C880B990BBE
:1000B0000E9489092AE037ED43E250E40E94E608F5
:1000C0000E945809633258F041E066E083E00E94E4
:1000D000500540E067E083E00E94500508956931D3
:1000E00058F040E066E083E00E94500541E067E0A0
:1000F00083E00E945005089540E066E083E00E949E
:10010000500540E067E083E00E945005089580912B
:10011000A5019091A6018093A7019093A4016091FD
:100120006000709161000E9428036CE271E080E041
:1001300090E00E944E066091600070916100665FE1
:100140007F4F8091A4010E9428036CE271E080E05F
:1001500090E00E944E060895CF930E94A603C82FF8
:100160008D3009F085C020919001309191018091EE
:10017000A5019091A6012817390709F070C00E94C7
:100180009E041092A6011092A50110929101109266
:10019000900110928F018EE690E00E94AB040E94C5
:1001A000A603C82F80918F018530A1F40E949E0480
:1001B0008CE790E00E94AB0460E081E00E94A20422
:1001C00087E890E00E94AB0410928F011092A60184
:1001D0001092A501CD3049F410928F010E949E0427
:1001E0001092A6011092A501DACFCA3AC1F2CC3022
:1001F00009F4ACC080918F01811102C00E949E045D
:100200006C2F70E080E090E00E94C10460EB74E02D
:1002100080E090E00E944E0660918F0180E00E9495
:10022000A2048AE20E94310480918F018F5F809343
:100230008F018091A5019091A6019C01220F331F8F
:10024000880F991F880F991F880F991F820F931F7E
:100250008C0F911D9093A6018093A501A0CF0E94C1
:100260009E04109291011092900110928F0178C01B
:100270008C3089F50E949E0420919001309191016B
:100280008091A5019091A60128173907C9F48091A2
:100290008E0181110BC087E990E00E94AB0484EBD2
:1002A0000E94E90481E080938E010EC088EA90E00C
:1002B0000E94AB0480E00E94E90410928E0104C009
:1002C00089EB90E00E94AB04109291011092900192
:1002D00010928F0145C08A3A09F442C080918F0183
:1002E000811102C00E949E046C2F70E080E090E0BB
:1002F0000E94C1042FE78AE196E02150804090409F
:10030000E1F700C0000060918F0180E00E94A2042C
:100310008AE20E94310480918F018F5F80938F0168
:1003200080919001909191019C01220F331F880FC1
:10033000991F880F991F880F991F820F931F8C0F89
:10034000911D90939101809390010AC00E949E0498
:1003500086EC90E00E94AB0410928F010E9487000F
:10036000CF910895609160007091610087EA91E0FB
:100370000E9440036CE271E080E090E00E944E0633
:100380006091600070916100665F7F4F84EA91E048
:100390000E9440036CE271E080E090E00E944E0613
:1003A0008091A40190E0982F88272091A701822BAB
:1003B0009093A6018093A5010895CF93DF931F9298
:1003C000CDB7DEB719820E940E0541E066E083E0FA
:1003D0000E94220541E067E083E00E9422050E941E
:1003E00075040E945F0341E065E083E00E942205FE
:1003F0000E94E00480E00E94840765E070E0CE0186
:1004000001960E94400389818C31D1F086ED90E005
:100410000E94AB048CE1898382ED94E09093A60165
:100420008093A5010E94870065E070E089810E94A9
:1004300028036CE271E080E090E00E944E0604C068
:1004400080EE90E00E94AB040E94B2010E94F60789
:1004500084E792E00E9449080E944E080E944A06E2
:1004600041E065E082E00E94220541E066E082E032
:100470000E94220541E067E082E00E9422050E947E
:100480004E080E94AC000E944900F9CFCF93DF9341
:10049000C82FD62F0E949E04C13339F441E06D2F3E
:1004A00082E00E94500581E01CC0C033C9F440E0E6
:1004B0006D2F82E00E9450058DEE90E00E94AB040B
:1004C0006D2F70E064507109072E000C880B990B9A
:1004D0000E94C10483EF90E00E94AB0482E001C05F
:1004E00083E0DF91CF910895CF92DF92EF92FF9258
:1004F0000F931F93CF93DF9300D000D000D0CDB7E0
:10050000DEB70E9403088A3209F093C08BEF90E0B7
:100510000E9433088AE20E94FE070E949E048AE23B
:100520000E9431048E010F5F1F4F6E0187E0C80EDD
:10053000D11C7801C8010E940708813079F48DE050
:100540000E94FE078EE191E00E9433088DE00E9438
:10055000FE070E949E040E94E0046BC0F801819196
:100560008F010E94FE07F70180810E9431040C1563
:100570001D05F9F68DE00E94FE078981893649F450
:100580008A818A3231F48C818A3219F48E818332E5
:1005900039F080E391E00E9433080E94E00449C0F2
:1005A0008B81813331F465E08D810E944602182FE2
:1005B0000FC0823331F466E08D810E944602182F0D
:1005C00007C0833339F467E08D810E944602182FFB
:1005D000133029F48AE491E00E94330828C08DEE9C
:1005E00090E00E9433088B810E94FE07113081F455
:1005F00089E691E00E9433088DEE90E00E94AB0402
:100600008B810E94310487E791E00E94AB040FC008
:100610008EE791E00E9433088DEE90E00E94AB04DB
:100620008B810E94310483EF90E00E94AB040E9412
:10063000E00426960FB6F894DEBF0FBECDBFDF9163
:10064000CF911F910F91FF90EF90DF90CF90089581
:100650001F93CF93DF93C82FD62F172F0E94900799
:10066000812F80650E94B1078D2F0E94D1078C2FAA
:100670000E94D1070E94EF07DF91CF911F9108954B
:100680000F931F93CF93DF938C01D62FC72FC06595
:100690000E9490078C2F0E94B1078D2F0E94D107D6
:1006A0000E94A0078C2F0E94C107C8010E94DB078F
:1006B0000E94EF07DF91CF911F910F91089541E0C4
:1006C00062E082E00E94220541E063E082E00E9455
:1006D000220541E064E082E00E94220541E062E000
:1006E00082E00E94500541E063E082E00E945005F4
:1006F00041E064E082E00E94500540E061E080E07B
:100700000E94220540E062E080E00E94220540E075
:1007100063E080E00E94220540E064E080E00E9407
:10072000220541E061E080E00E94500541E062E086
:1007300080E00E94500541E063E080E00E945005A7
:1007400041E064E080E00E94500508954F925F927E
:100750006F927F928F929F92AF92BF92CF92DF92D1
:10076000EF92FF920F931F93CF93DF93CDB7DEB736
:1007700063970FB6F894DEBF0FBECDBF22E029838A
:1007800093E09A8384E08B8331E03C832D839E83C6
:100790008F838CE0E2E6F0E0DE01189601900D9286
:1007A0008A95E1F7CE0101964C01A12CB12C3501BF
:1007B000F40141904F0140E0642D82E00E94500519
:1007C0007E01F4E0EF0EF11C00E010E06801F7019B
:1007D00051907F01652D80E00E949E05811117C018
:1007E000C801880F991FC80ED91E81E090E08C0FB8
:1007F0009D1FC80ED91EF601E60DF71D1781652D48
:1008000080E00E949E058823D1F3812F13C00F5FE3
:100810001F4F04301105D1F641E0642D82E00E94A3
:1008200050059FEFA91AB90AE3E0AE16B10409F02A
:10083000BECF8AEA63960FB6F894DEBF0FBECDBF77
:10084000DF91CF911F910F91FF90EF90DF90CF90AC
:10085000BF90AF909F908F907F906F905F904F90E0
:100860000895CF93C82F41E065E080E00E945005D5
:1008700040E066E080E00E9450056C2F81E00E941D
:100880008E0541E067E080E00E9450058FE99FE01F
:100890000197F1F700C0000040E067E080E00E94AF
:1008A0005005CF910895CF93C82F40E065E080E0D8
:1008B0000E94500540E066E080E00E9450056C2FE9
:1008C00081E00E948E0541E067E080E00E945005D3
:1008D0008FE99FE00197F1F700C0000040E067E07A
:1008E00080E00E945005CF9108956FEF81E00E9453
:1008F0007E0541E065E080E00E94220541E066E07F
:1009000080E00E94220541E067E080E00E9422052D
:100910002FEF89EF90E0215080409040E1F700C038
:10092000000088E30E9453048CE00E94530481E09D
:100930000E94530486E00E945304089581E00E94BF
:100940005304089590E4899F600D1124862F8068D8
:100950000E94530408950F931F93CF93FC0180814D
:10096000882359F08F01C0E00E943104CF5FF80165
:10097000EC0FF11D80818111F7CFCF911F910F9165
:100980000895CF93DF93CDB7DEB72A970FB6F894CB
:10099000DEBF0FBECDBFDC01CB014AE0BE016F5F01
:1009A0007F4F0E94820ACE0101960E94AB042A96D4
:1009B0000FB6F894DEBF0FBECDBFDF91CF91089583
:1009C0006AE082E00E946C0680E29EE40E94DA0601
:1009D0000895853B08F084EB682F70E080E090E09C
:1009E0000E94890921E63BE046EB5BE30E94150A81
:1009F00020E030E040E85FE30E947A0820E030E049
:100A00004AE754E40E94150A0E9458097093930122
:100A100060939201CB010E94DD0608953E9A3F98B3
:100A20003D9A3098319A329A379A089597B1907ECC
:100A300097B997B1892B87B9369A349BFECF349AF0
:100A400085B10895813049F028F0823049F0833033
:100A500051F00BC0EAE3F0E008C0E7E3F0E005C0C6
:100A6000E4E3F0E002C0E1E3F0E0442369F0413068
:100A7000B1F4208181E090E002C0880F991F6A954F
:100A8000E2F7822B80830895208181E090E002C00C
:100A9000880F991F6A95E2F78095822380830895D5
:100AA000813049F028F0823049F0833051F00BC09A
:100AB000EBE3F0E008C0E8E3F0E005C0E5E3F0E0D8
:100AC00002C0E2E3F0E0442369F04130B1F4208158
:100AD00081E090E002C0880F991F6A95E2F7822BAF
:100AE00080830895208181E090E002C0880F991FE3
:100AF0006A95E2F78095822380830895813041F0E2
:100B000028F0823039F0833039F008956ABB0895B7
:100B100067BB089564BB089561BB0895813041F0BF
:100B200028F0823039F0833039F008956BBB089596
:100B300068BB089565BB089562BB0895813081F05C
:100B400028F08230B9F08330F9F027C089B390E003
:100B500002C0959587956A95E2F7982F91701DC010
:100B600086B390E002C0959587956A95E2F7982F35
:100B7000917013C083B390E002C0959587956A95F4
:100B8000E2F7982F917009C080B390E002C095956C
:100B900087956A95E2F7982F9170892F08951F9293
:100BA0000F920FB60F9211242F933F934F935F93A1
:100BB0006F937F938F939F93AF93BF93EF93FF9325
:100BC000E0919801F0919901309709F00995FF9112
:100BD000EF91BF91AF919F918F917F916F915F91B5
:100BE0004F913F912F910F900FBE0F901F9018952E
:100BF0001F920F920FB60F9211242F933F934F9392
:100C00005F936F937F938F939F93AF93BF93EF9374
:100C1000FF93E0919601F0919701309709F00995C3
:100C2000FF91EF91BF91AF919F918F917F916F91C4
:100C30005F914F913F912F910F900FBE0F901F909A
:100C400018951F920F920FB60F9211242F933F9376
:100C50004F935F936F937F938F939F93AF93BF93C4
:100C6000EF93FF93E0919401F0919501309709F093
:100C70000995FF91EF91BF91AF919F918F917F91D6
:100C80006F915F914F913F912F910F900FBE0F90F9
:100C90001F9018958FB780688FBF08950F931F938B
:100CA0008B019C01672B682B692B69F412C001979B
:100CB000F1F74F5F5F4F6F4F7F4F04171507260700
:100CC000370721F406C040E050E0BA018EE591E01C
:100CD000EECF1F910F9108958130A1F018F082306E
:100CE00009F132C08FB58E7F8FBD8FB58D7F8FBDDF
:100CF0008EB5877F8EBD8EB58F7E8EBD89B78460A1
:100D000089BF22C08FB58E7F8FBD8FB58D7F8FBD80
:100D10008EB588608EBD8EB58F7E8EBD89B78061A1
:100D200089BF12C08FB58F7B8FBD8FB580688FBD97
:100D30008FB58E7F8FBD8FB582608FBD8EB5886079
:100D40008EBD8EB580618EBDE0E0F0E04DECA1E09F
:100D5000B0E0649F812D1124869586958695880F35
:100D6000982F990F990F890F962F981B913059F44E
:100D70002EB5CD010E2E02C0880F991F0A94E2F7FE
:100D8000822B8EBD0CC09EB59D010E2E02C0220F7F
:100D9000331F0A94E2F7822F809589238EBD649FCA
:100DA000612D11246695669566953196E330F105BF
:100DB00081F6089597BD86BD08959BBD8ABD0895AF
:100DC0001F920F920FB60F9211242F933F934F93C0
:100DD0005F936F937F938F939F93AF93BF93EF93A3
:100DE000FF93E091A001F091A101309709F00995DE
:100DF000FF91EF91BF91AF919F918F917F916F91F3
:100E00005F914F913F912F910F900FBE0F901F90C8
:100E100018951F920F920FB60F9211242F933F93A4
:100E20004F935F936F937F938F939F93AF93BF93F2
:100E3000EF93FF93E0919E01F0919F01309709F0AD
:100E40000995FF91EF91BF91AF919F918F917F9104
:100E50006F915F914F913F912F910F900FBE0F9027
:100E60001F9018951F920F920FB60F9211242F9377
:100E70003F934F935F936F937F938F939F93AF9322
:100E8000BF93EF93FF93E0919C01F0919D01309708
:100E900009F00995FF91EF91BF91AF919F918F91CB
:100EA0007F916F915F914F913F912F910F900FBE66
:100EB0000F901F9018951F920F920FB60F9211244A
:100EC0002F933F934F935F936F937F938F939F9352
:100ED000AF93BF93EF93FF93E0919A01F0919B0141
:100EE000309709F00995FF91EF91BF91AF919F91D4
:100EF0008F917F916F915F914F913F912F910F90C3
:100F00000FBE0F901F90189596E990B90998089810
:100F1000882311F0880F82B986B7846086BF089550
:100F200086B7806286BF86B7806886BF06B607FE32
:100F3000FDCF91B1987F81E0983009F480E0089569
:100F400086B7806286BF86B7806886BF06B607FE12
:100F5000FDCF81B1887F803111F082E0089580E07B
:100F60000895880F83B9189884E886BF06B607FEEF
:100F7000FDCF81B1887F883111F083E0089580E052
:100F80000895880F83B9189A84E886BF06B607FECD
:100F9000FDCF81B1887F803411F084E0089580E036
:100FA000089583B986B7806886BF06B607FEFDCF71
:100FB00081B185E00895FC0196B7906496BF96B71D
:100FC000906896BF06B607FEFDCF91B1987F903529
:100FD00021F483B1808380E0089586E0089586B788
:100FE000806186BF86B7806886BF0895529886E87C
:100FF00080BD83E389B9539A549A08955D9BFECFCF
:101000005D9A8CB908955F9BFECF8CB10895FC0169
:101010001DBC1CBC8FB58E7F8FBD9FB59D7F9FBDB6
:101020009EB5977F9EBD9EB59F7E9EBD9EB59160ED
:101030009EBD9EB59D7F9EBD9EB594609EBD0BC01E
:101040002CB53DB520343C4930F05F9A8EB5887F91
:101050008EBD81E008955F9BF3CF8CB180831DBC72
:101060001CBC80E008950F931F93CF93FC018081F7
:10107000882359F08F01C0E00E94FE07CF5FF8017E
:10108000EC0FF11D80818111F7CFCF911F910F914E
:1010900008959093A3018093A2010895579A08950B
:1010A0001F920F920FB60F9211242F933F934F93DD
:1010B0005F936F937F938F939F93AF93BF93EF93C0
:1010C000FF93E091A201F091A301309709F00995F7
:1010D000FF91EF91BF91AF919F918F917F916F9110
:1010E0005F914F913F912F910F900FBE0F901F90E6
:1010F00018955058BB27AA270E9491080C94DB0929
:101100000E94CD0938F00E94D40920F039F49F3FA5
:1011100019F426F40C94CA090EF4E095E7FB0C943C
:10112000C409E92F0E94EC0958F3BA176207730744
:101130008407950720F079F4A6F50C940E0A0EF4B6
:10114000E0950B2EBA2FA02D0B01B90190010C01D7
:10115000CA01A0011124FF27591B99F0593F50F4EF
:10116000503E68F11A16F040A22F232F342F442747
:10117000585FF3CF469537952795A795F04053953F
:10118000C9F77EF41F16BA0B620B730B840BBAF00F
:101190009150A1F0FF0FBB1F661F771F881FC2F77A
:1011A0000EC0BA0F621F731F841F48F4879577958E
:1011B0006795B795F7959E3F08F0B0CF9395880F48
:1011C00008F09927EE0F9795879508950E94FA08E1
:1011D0000C94DB090E94D40958F00E94CD0940F01C
:1011E00029F45F3F29F00C94C40951110C940F0AA3
:1011F0000C94CA090E94EC0968F39923B1F35523B2
:1012000091F3951B550BBB27AA2762177307840719
:1012100038F09F5F5F4F220F331F441FAA1FA9F3AF
:1012200035D00E2E3AF0E0E832D091505040E6959D
:10123000001CCAF72BD0FE2F29D0660F771F881FFE
:10124000BB1F261737074807AB07B0E809F0BB0BF1
:10125000802DBF01FF2793585F4F3AF09E3F510505
:1012600078F00C94C4090C940F0A5F3FE4F3983EA5
:10127000D4F3869577956795B795F7959F5FC9F7EE
:10128000880F911D9695879597F90895E1E0660F6F
:10129000771F881FBB1F621773078407BA0720F0E8
:1012A000621B730B840BBA0BEE1F88F7E095089551
:1012B0000E94F40988F09F5798F0B92F9927B751E9
:1012C000B0F0E1F0660F771F881F991F1AF0BA95EA
:1012D000C9F714C0B13091F00E940E0AB1E0089530
:1012E0000C940E0A672F782F8827B85F39F0B93F22
:1012F000CCF3869577956795B395D9F73EF490959D
:101300008095709561957F4F8F4F9F4F0895E8941A
:1013100009C097FB3EF490958095709561957F4F3D
:101320008F4F9F4F9923A9F0F92F96E9BB279395EB
:10133000F695879577956795B795F111F8CFFAF4FB
:10134000BB0F11F460FF1BC06F5F7F4F8F4F9F4F2C
:1013500016C0882311F096E911C0772321F09EE88A
:10136000872F762F05C0662371F096E8862F70E0F0
:1013700060E02AF09A95660F771F881FDAF7880FCA
:101380009695879597F9089597F99F6780E870E09B
:1013900060E008959FEF80EC089500240A941616EB
:1013A000170618060906089500240A941216130653
:1013B000140605060895092E0394000C11F48823E1
:1013C00052F0BB0F40F4BF2B11F460FF04C06F5FFD
:1013D0007F4F8F4F9F4F089557FD9058440F551FD3
:1013E00059F05F3F71F04795880F97FB991F61F0A7
:1013F0009F3F79F087950895121613061406551F1E
:10140000F2CF4695F1DF08C0161617061806991F89
:10141000F1CF86957105610508940895E894BB277E
:1014200066277727CB0197F908950E94280A0C9424
:10143000DB090E94CD0938F00E94D40920F09523E1
:1014400011F00C94C4090C94CA0911240C940F0ACD
:101450000E94EC0970F3959FC1F3950F50E0551F62
:10146000629FF001729FBB27F00DB11D639FAA27F9
:10147000F00DB11DAA1F649F6627B00DA11D661F48
:10148000829F2227B00DA11D621F739FB00DA11D69
:10149000621F839FA00D611D221F749F3327A00D23
:1014A000611D231F849F600D211D822F762F6A2FBF
:1014B00011249F5750409AF0F1F088234AF0EE0F24
:1014C000FF1FBB1F661F771F881F91505040A9F751
:1014D0009E3F510580F00C94C4090C940F0A5F3FA5
:1014E000E4F3983ED4F3869577956795B795F7958D
:1014F000E7959F5FC1F7FE2B880F911D9695879505
:1015000097F90895BB274A3031F4992322F4BDE2BC
:10151000909581959F4F0C948E0ABB27FB01552710
:10152000AA27880F991FAA1FA41710F0A41B839540
:101530005051B9F7A05DAA3308F0A95DA1930097B7
:1015400079F7B111B1931192CB010C94A70ADC0188
:10155000FC01672F71917723E1F7329704C07C91EA
:101560006D9370836291AE17BF07C8F30895F89426
:02157000FFCFAB
:1015720032000708090405060102030D000C536539
:1015820074206E657720706173733A004552524F32
:10159200522021212121004D61782044696769741C
:1015A200732069732034004C6F636B65722069731A
:1015B200206F70656E6564004C6F636B65722069A5
:1015C2007320436C6F7365640057726F6E6720708F
:1015D20061737321200070617373206973207570C9
:1015E20064617465640046697273742052756E009A
:1015F20053797374656D206973204F6E00524F4F9B
:101602004D2000206973204F46460045787065637F
:1016120074656420494E5020466F726D61742022B9
:10162200202A692A782A78232022203A0D002323AF
:101632004552524F523A2054696D65204F757400DD
:101642002323494E434F525245435420494E50554D
:101652005420464F524D41540D002323494E434FCF
:10166200525245435420524F4F4D204E756D206FBC
:10167200722053746174650D00204C696768742090
:101682004973204F4E0D00206973204F4E00204CAD
:0E16920069676874204973204F46460D0000BA
:00000001FF
