:100000000C942A000C94A7040C94D0040C94F904CA
:100010000C9447000C9447000C94F3050C94470093
:100020000C9447000C9447000C94CA050C94A1054D
:100030000C9447000C9447000C9447000C94470024
:100040000C9447000C9447000C9447000C94470014
:100050000C94470011241FBECFE5D8E0DEBFCDBF12
:1000600010E0A0E6B0E0E0EBF0E102C005900D92F8
:10007000A63DB107D9F720E0A6EDB0E001C01D9282
:10008000AD3EB207E1F70E94A7010C9456080C940C
:10009000000080E00E94EE03823158F041E066E00B
:1000A00083E00E94280440E067E083E00E94280487
:1000B00008958D3058F040E066E083E00E94280407
:1000C00041E067E083E00E942804089540E066E094
:1000D00083E00E94280440E067E083E00E94280457
:1000E0000895CF930E947C02C82F8D3009F084C000
:1000F0002091D9003091DA008091EA009091EB00D4
:100100002817390709F06DC00E9476031092EB00A2
:100110001092EA001092DA001092D9001092D800E2
:100120001092D7008EE690E00E9483030E947C022A
:10013000C82F8091D7009091D8000597B1F40E9404
:1001400076038CE790E00E94830360E081E00E94E8
:100150007A0387E890E00E9483031092D8001092FF
:10016000D7001092EB001092EA00CD3059F41092B3
:10017000D8001092D7000E9476031092EB001092E4
:10018000EA00D4CFCA3A91F2CC3009F497C08091FA
:10019000D7009091D800892B11F40E9476038AE24F
:1001A0000E9409038091D7009091D8000196909306
:1001B000D8008093D7008091EA009091EB009C01D9
:1001C000220F331F880F991F880F991F880F991FBF
:1001D000820F931F8C0F911D9093EB008093EA0088
:1001E000A5CF0E9476031092DA001092D9001092E7
:1001F000D8001092D70088C08C3099F50E94760301
:100200002091D9003091DA008091EA009091EB00C2
:1002100028173907C9F48091D60081110BC087E9EE
:1002200090E00E94830384EB0E94C10381E08093ED
:10023000D6000EC086EA90E00E94830380E00E9410
:10024000C1031092D60004C085EB90E00E948303A6
:100250001092DA001092D9001092D8001092D700B4
:1002600053C08A3A09F450C08091D7009091D800C9
:10027000892B11F40E9476038AE20E94090380917F
:10028000D7009091D80001969093D8008093D70022
:100290008091D9009091DA009C01220F331F880FC2
:1002A000991F880F991F880F991F820F931F8C0F1A
:1002B000911D9093DA008093D90026C00E947603A6
:1002C00086EC90E00E9483031092D8001092D70031
:1002D0008091EA008093EC00609160007091610071
:1002E0000E94FE016CE271E080E090E00E94220535
:1002F0008091EB008093E900609160007091610053
:10030000665F7F4F0E94FE01CF9108958093EC00BD
:100310009093E90060916000709161000E94FE017D
:100320006CE271E080E090E00E9422056091600044
:1003300070916100665F7F4F8091E9000E94FE012D
:100340006CE271E080E090E00E94220508950E9436
:10035000E60341E066E083E00E94FA0341E067E0E3
:1003600083E00E94FA030E944D030E94350241E09F
:1003700065E083E00E94FA030E94B80380E00E94D7
:100380001C0688EC90E09093EB008093EA008CEBE5
:1003900092E00E94860160916000709161008CEE95
:1003A00090E00E9416026CE271E080E090E00E9412
:1003B00022056091600070916100665F7F4F89EE59
:1003C00090E00E9416026CE271E080E090E00E94F2
:1003D00022056091E90070E0762F66278091EC009D
:1003E000682B7093EB006093EA0080E090E00E943D
:1003F00099030E9471000E944900FBCF1F93CF9385
:10040000DF93C82FD62F172F0E942806812F8065D3
:100410000E9449068D2F0E9469068C2F0E94690652
:100420000E948706DF91CF911F9108950F931F932C
:10043000CF93DF938C01D62FC72FC0650E9428066B
:100440008C2F0E9449068D2F0E9469060E94380653
:100450008C2F0E945906C8010E9473060E948706CD
:10046000DF91CF911F910F91089541E064E082E008
:100470000E94FA0341E065E082E00E94FA0341E055
:1004800066E082E00E94FA0341E064E082E00E94BC
:10049000280441E065E082E00E94280441E066E033
:1004A00082E00E94280440E061E080E00E94FA03BC
:1004B00040E062E080E00E94FA0340E063E080E018
:1004C0000E94FA0340E064E080E00E94FA0341E009
:1004D00061E080E00E94280441E062E080E00E9448
:1004E000280441E063E080E00E94280441E064E0E9
:1004F00080E00E94280408954F925F926F927F924D
:100500008F929F92AF92BF92CF92DF92EF92FF9223
:100510000F931F93CF93DF93CDB7DEB763970FB6DB
:10052000F894DEBF0FBECDBF84E0898395E09A8347
:1005300096E09B8391E09C8392E09D8393E09E8371
:100540008F838CE0E2E6F0E0DE01189601900D92D8
:100550008A95E1F7CE0101964C01A12CB12C350111
:10056000F40141904F0140E0642D82E00E94280494
:100570007E01F4E0EF0EF11C00E010E06801F701ED
:1005800051907F01652D80E00E947604811117C093
:10059000C801880F991FC80ED91E81E090E08C0F0A
:1005A0009D1FC80ED91EF601E60DF71D1781652D9A
:1005B00080E00E9476048823D1F3812F13C00F5F5F
:1005C0001F4F04301105D1F641E0642D82E00E94F6
:1005D00028049FEFA91AB90AE3E0AE16B10409F0A6
:1005E000BECF8AEA63960FB6F894DEBF0FBECDBFCA
:1005F000DF91CF911F910F91FF90EF90DF90CF90FF
:10060000BF90AF909F908F907F906F905F904F9032
:100610000895CF93C82F41E065E080E00E94280450
:1006200040E066E080E00E9428046C2F81E00E9498
:10063000660441E067E080E00E9428048FE99FE0C3
:100640000197F1F700C0000040E067E080E00E9401
:100650002804CF910895CF93C82F40E065E080E053
:100660000E94280440E066E080E00E9428046C2F8D
:1006700081E00E94660441E067E080E00E94280477
:100680008FE99FE00197F1F700C0000040E067E0CC
:1006900080E00E942804CF9108956FEF81E00E94CE
:1006A000560441E065E080E00E94FA0341E066E024
:1006B00080E00E94FA0341E067E080E00E94FA03D4
:1006C0002FEF89EF90E0215080409040E1F700C08B
:1006D000000088E30E942B038CE00E942B0381E042
:1006E0000E942B0386E00E942B03089581E00E9464
:1006F0002B03089590E4899F600D1124862F806854
:100700000E942B0308950F931F93CF93FC018081C8
:10071000882359F08F01C0E00E940903CF5FF801E0
:10072000EC0FF11D80818111F7CFCF911F910F91B7
:100730000895CF93DF93CDB7DEB72A970FB6F8941D
:10074000DEBF0FBECDBFDC01CB014AE0BE016F5F53
:100750007F4F0E942108CE0101960E9483032A96B2
:100760000FB6F894DEBF0FBECDBFDF91CF910895D5
:100770006AE082E00E94400580E29EE40E949B05C0
:100780000895853B08F084EB682F70E080E090E0EE
:100790000E94280721E63BE046EB5BE30E94B4079A
:1007A00020E030E040E85FE30E948B0620E030E08C
:1007B0004AE754E40E94B4070E94F7067093DC00F5
:1007C0006093DB00CB010E949E0508953E9A3F98FE
:1007D0003D9A3098319A329A379A089597B1907E1F
:1007E00097B997B1892B87B9369A349BFECF349A43
:1007F00085B10895813049F028F0823049F0833086
:1008000051F00BC0EAE3F0E008C0E7E3F0E005C018
:10081000E4E3F0E002C0E1E3F0E0442369F04130BA
:10082000B1F4208181E090E002C0880F991F6A95A1
:10083000E2F7822B80830895208181E090E002C05E
:10084000880F991F6A95E2F7809582238083089527
:10085000813049F028F0823049F0833051F00BC0EC
:10086000EBE3F0E008C0E8E3F0E005C0E5E3F0E02A
:1008700002C0E2E3F0E0442369F04130B1F42081AA
:1008800081E090E002C0880F991F6A95E2F7822B01
:1008900080830895208181E090E002C0880F991F35
:1008A0006A95E2F78095822380830895813041F034
:1008B00028F0823039F0833039F008956ABB08950A
:1008C00067BB089564BB089561BB0895813041F012
:1008D00028F0823039F0833039F008956BBB0895E9
:1008E00068BB089565BB089562BB0895813081F0AF
:1008F00028F08230B9F08330F9F027C089B390E056
:1009000002C0959587956A95E2F7982F91701DC062
:1009100086B390E002C0959587956A95E2F7982F87
:10092000917013C083B390E002C0959587956A9546
:10093000E2F7982F917009C080B390E002C09595BE
:1009400087956A95E2F7982F9170892F08951F92E5
:100950000F920FB60F9211242F933F934F935F93F3
:100960006F937F938F939F93AF93BF93EF93FF9377
:10097000E091E100F091E200309709F00995FF91D4
:10098000EF91BF91AF919F918F917F916F915F9107
:100990004F913F912F910F900FBE0F901F90189580
:1009A0001F920F920FB60F9211242F933F934F93E4
:1009B0005F936F937F938F939F93AF93BF93EF93C7
:1009C000FF93E091DF00F091E000309709F0099586
:1009D000FF91EF91BF91AF919F918F917F916F9117
:1009E0005F914F913F912F910F900FBE0F901F90ED
:1009F00018951F920F920FB60F9211242F933F93C9
:100A00004F935F936F937F938F939F93AF93BF9316
:100A1000EF93FF93E091DD00F091DE00309709F055
:100A20000995FF91EF91BF91AF919F918F917F9128
:100A30006F915F914F913F912F910F900FBE0F904B
:100A40001F9018950F931F938B019C01672B682BA8
:100A5000692B69F412C00197F1F74F5F5F4F6F4F39
:100A60007F4F041715072607370721F406C040E01B
:100A700050E0BA018EE591E0EECF1F910F910895FD
:100A800020E030E05DECA1E0B0E0659F912D112405
:100A9000969596959695990F492F440F440F940F6C
:100AA000462F491B413059F49EB5FD01022E02C06C
:100AB000EE0FFF1F0A94E2F7E92BEEBD0CC04EB516
:100AC000FD01022E02C0EE0FFF1F0A94E2F79E2FD7
:100AD000909594239EBD659F612D11246695669522
:100AE00066952F5F3F4F2330310579F6882319F043
:100AF000823071F008958FB58E7F8FBD8FB58D7F59
:100B00008FBD8EB5877F8EBD8EB58F7E8EBD0895CD
:100B10008FB58F7B8FBD8FB580688FBD8FB58E7F72
:100B20008FBD8FB582608FBD8EB588608EBD8EB54E
:100B300080618EBD089597BD86BD08959BBD8ABD19
:100B400008951F920F920FB60F9211242F933F9387
:100B50004F935F936F937F938F939F93AF93BF93C5
:100B6000EF93FF93E091E700F091E800309709F0F0
:100B70000995FF91EF91BF91AF919F918F917F91D7
:100B80006F915F914F913F912F910F900FBE0F90FA
:100B90001F9018951F920F920FB60F9211242F934A
:100BA0003F934F935F936F937F938F939F93AF93F5
:100BB000BF93EF93FF93E091E500F091E60030974B
:100BC00009F00995FF91EF91BF91AF919F918F919E
:100BD0007F916F915F914F913F912F910F900FBE39
:100BE0000F901F9018951F920F920FB60F9211241D
:100BF0002F933F934F935F936F937F938F939F9325
:100C0000AF93BF93EF93FF93E091E300F091E40083
:100C1000309709F00995FF91EF91BF91AF919F91A6
:100C20008F917F916F915F914F913F912F910F9095
:100C30000FBE0F901F90189596E990B909980898E3
:100C4000882311F0880F82B986B7846086BF089523
:100C500086B7806286BF86B7806886BF06B607FE05
:100C6000FDCF91B1987F81E0983009F480E008953C
:100C700086B7806286BF86B7806886BF06B607FEE5
:100C8000FDCF81B1887F803111F082E0089580E04E
:100C90000895880F83B9189884E886BF06B607FEC2
:100CA000FDCF81B1887F883111F083E0089580E025
:100CB0000895880F83B9189A84E886BF06B607FEA0
:100CC000FDCF81B1887F803411F084E0089580E009
:100CD000089583B986B7806886BF06B607FEFDCF44
:100CE00081B185E00895FC0196B7906496BF96B7F0
:100CF000906896BF06B607FEFDCF91B1987F9035FC
:100D000021F483B1808380E0089586E0089584E92A
:100D100086BF08955058BB27AA270E94A2060C94AC
:100D20007A070E946C0738F00E94730720F039F4AC
:100D30009F3F19F426F40C9469070EF4E095E7FB45
:100D40000C946307E92F0E948B0758F3BA176207C8
:100D500073078407950720F079F4A6F50C94AD0786
:100D60000EF4E0950B2EBA2FA02D0B01B9019001C6
:100D70000C01CA01A0011124FF27591B99F0593F0A
:100D800050F4503E68F11A16F040A22F232F342F52
:100D90004427585FF3CF469537952795A795F040A0
:100DA0005395C9F77EF41F16BA0B620B730B840BB5
:100DB000BAF09150A1F0FF0FBB1F661F771F881F6D
:100DC000C2F70EC0BA0F621F731F841F48F48795C5
:100DD00077956795B795F7959E3F08F0B0CF9395B7
:100DE000880F08F09927EE0F9795879508950E9430
:100DF000930788F09F5798F0B92F9927B751B0F013
:100E0000E1F0660F771F881F991F1AF0BA95C9F78E
:100E100014C0B13091F00E94AD07B1E008950C9478
:100E2000AD07672F782F8827B85F39F0B93FCCF32B
:100E3000869577956795B395D9F73EF4909580950B
:100E4000709561957F4F8F4F9F4F0895E89409C02B
:100E500097FB3EF490958095709561957F4F8F4FED
:100E60009F4F9923A9F0F92F96E9BB279395F69503
:100E7000879577956795B795F111F8CFFAF4BB0F81
:100E800011F460FF1BC06F5F7F4F8F4F9F4F16C0E5
:100E9000882311F096E911C0772321F09EE8872F6F
:100EA000762F05C0662371F096E8862F70E060E02B
:100EB0002AF09A95660F771F881FDAF7880F9695A4
:100EC000879597F9089597F99F6780E870E060E04B
:100ED00008959FEF80EC089500240A9416161706D3
:100EE00018060906089500240A941216130614061B
:100EF00005060895092E0394000C11F4882352F07E
:100F0000BB0F40F4BF2B11F460FF04C06F5F7F4F35
:100F10008F4F9F4F089557FD9058440F551F59F01C
:100F20005F3F71F04795880F97FB991F61F09F3FD6
:100F300079F087950895121613061406551FF2CFFF
:100F40004695F1DF08C0161617061806991FF1CF4F
:100F500086957105610508940895E894BB27662776
:100F60007727CB0197F908950E94C7070C947A0759
:100F70000E946C0738F00E94730720F0952311F04F
:100F80000C9463070C94690711240C94AE070E941B
:100F90008B0770F3959FC1F3950F50E0551F629F2B
:100FA000F001729FBB27F00DB11D639FAA27F00DC2
:100FB000B11DAA1F649F6627B00DA11D661F829FE9
:100FC0002227B00DA11D621F739FB00DA11D621FCE
:100FD000839FA00D611D221F749F3327A00D611DEB
:100FE000231F849F600D211D822F762F6A2F1124CD
:100FF0009F5750409AF0F1F088234AF0EE0FFF1F00
:10100000BB1F661F771F881F91505040A9F79E3F56
:10101000510580F00C9463070C94AE075F3FE4F336
:10102000983ED4F3869577956795B795F795E795AC
:101030009F5FC1F7FE2B880F911D9695879597F9B5
:101040000895BB274A3031F4992322F4BDE29095EC
:1010500081959F4F0C942D08BB27FB015527AA278C
:10106000880F991FAA1FA41710F0A41B8395505135
:10107000B9F7A05DAA3308F0A95DA193009779F7AD
:10108000B111B1931192CB010C944608DC01FC0123
:10109000672F71917723E1F7329704C07C916D93AC
:1010A00070836291AE17BF07C8F30895F894FFCF1D
:1010B00032000708090405060102030D000C536500
:1010C00074206E657720706173733A004552524FF9
:1010D000522021212121004D6178204469676974E3
:1010E00073206973203400446F6F72206973206F1E
:1010F00070656E656400446F6F7220697320436C85
:101100006F7365640057726F6E67207061737377D9
:101110006F72642021007061737320697320757091
:06112000646174656400C7
:00000001FF
