S01900004954495F46696E616C5F50726F6A6563742E73726563A6
S11300000C942A000C9480050C94A9050C94D20538
S11300100C9447000C9447000C94E6060C940F07CC
S11300200C9447000C9447000C94BD060C94940661
S11300300C9447000C9404080C9447000C9447005B
S11300400C9447000C9447000C9447000C94470010
S11300500C94470011241FBECFE5D8E0DEBFCDBF0E
S113006011E0A0E6B0E0EAEDF4E102C005900D92E3
S1130070A237B107D9F721E0A2E7B1E001C01D9290
S1130080AC38B207E1F70E94B7010C946B0A0C94E8
S1130090000080E00E94C70490E0BC01660F771F57
S11300A0660F771F680F791F072E000C880B990BBA
S11300B00E943D092AE037ED43E250E40E949A0889
S11300C00E940C09633258F041E066E083E00E942C
S11300D0010540E067E083E00E940105089569316D
S11300E058F040E066E083E00E94010541E067E0EB
S11300F083E00E940105089540E066E083E00E94E9
S1130100010540E067E083E00E94010508958091C5
S1130110890190918A0180938B0190938801609169
S11301206000709161000E94D9026CE271E080E08D
S113013090E00E94FF056091600070916100665F2D
S11301407F4F809188010E94D9026CE271E080E0C7
S113015090E00E94FF050895CF930E945703C82F93
S11301608D3009F074C02091740130917501809133
S1130170890190918A012817390709F05FC00E940C
S11301804F0410928A011092890110927501109205
S11301907401109273018EE690E00E945C040E9448
S11301A05703C82F809173018530A1F40E944F0436
S11301B08CE790E00E945C0460E081E00E945304BC
S11301C087E890E00E945C041092730110928A0107
S11301D010928901CD3049F4109273010E944F04AA
S11301E010928A0110928901DACFCA3AC1F2CC3056
S11301F009F486C080917301811102C00E944F04EA
S11302008AE20E94E203809173018F5F80937301FD
S11302108091890190918A019C01220F331F880FDC
S1130220991F880F991F880F991F820F931F8C0F96
S1130230911D90938A0180938901B1CF0E944F044C
S113024010927501109274011092730163C08C3086
S113025089F50E944F0420917401309175018091B9
S1130260890190918A0128173907C9F48091720194
S113027081110BC087E990E00E945C0484EB0E942A
S11302809A0481E0809372010EC086EA90E00E9495
S11302905C0480E00E949A041092720104C085EB11
S11302A090E00E945C041092750110927401109207
S11302B0730130C08A3A71F180917301811102C0D7
S11302C00E944F048AE20E94E203809173018F5FCF
S11302D08093730180917401909175019C01220FA8
S11302E0331F880F991F880F991F880F991F820F3A
S11302F0931F8C0F911D90937501809374010AC014
S11303000E944F0486EC90E00E945C0410927301FA
S11303100E948700CF910895609160007091610000
S11303208BE891E00E94F1026CE271E080E090E0E1
S11303300E94FF056091600070916100665F7F4FCD
S113034088E891E00E94F1026CE271E080E090E0C4
S11303500E94FF058091880190E0982F88272091C2
S11303608B01822B90938A01809389010895CF9306
S1130370DF931F92CDB7DEB719820E94BF0441E01C
S113038066E083E00E94D30441E067E083E00E94DA
S1130390D3040E9426040E94100341E065E083E038
S11303A00E94D3040E94910480E00E94380765E013
S11303B070E0CE0101960E94F10289818C31C9F06E
S11303C086ED90E00E945C048CE1898382ED94E0E8
S11303D090938A01809389010E94870065E070E010
S11303E089810E94D9026CE271E080E090E00E9471
S11303F0FF050E948C016091890170918A0180E05F
S113040090E00E9472040E94AA0787E392E00E948F
S1130410FD070E9402080E94FB0541E065E082E0BE
S11304200E94D30441E066E082E00E94D30441E0EC
S113043067E082E00E94D3040E94FB050E94020848
S11304400E94AC000E944900F7CF813331F441E0AF
S113045082E00E94010581E00895803331F440E098
S113046082E00E94010582E0089583E00895CF921E
S1130470DF92EF92FF920F931F93CF93DF9300D0FD
S113048000D000D0CDB7DEB70E94B7078A3209F09A
S113049081C080EE90E00E94E7078AE20E94B207E2
S11304A00E944F048AE20E94E2038E010F5F1F4FF5
S11304B06E0187E0C80ED11C7801C8010E94BB07F9
S11304C0813079F48DE00E94B20783E091E00E94CC
S11304D0E7078DE00E94B2070E944F040E94910436
S11304E059C0F80181918F010E94B207F701808100
S11304F00E94E20380E090E00E9491060C151D0525
S1130500D9F68DE00E94B2078981893649F48A813F
S11305108A3231F48C818A3219F48E81833239F033
S113052085E191E00E94E7070E94910433C08B812A
S1130530813331F465E08D810E942502182F0FC0AC
S1130540823331F466E08D810E942502182F07C0A2
S1130550833339F467E08D810E942502182F13300C
S113056029F48FE291E00E94E70712C08EE491E043
S11305700E94E7078B810E94B207113029F484E5B9
S113058091E00E94E70704C082E691E00E94E70739
S11305900E94910426960FB6F894DEBF0FBECDBF1D
S11305A0DF91CF911F910F91FF90EF90DF90CF904B
S11305B008951F93CF93DF93C82FD62F172F0E9430
S11305C04407812F80650E9465078D2F0E9485074F
S11305D08C2F0E9485070E94A307DF91CF911F9162
S11305E008950F931F93CF93DF938C01D62FC72FBA
S11305F0C0650E9444078C2F0E9465078D2F0E94BE
S113060085070E9454078C2F0E947507C8010E9419
S11306108F070E94A307DF91CF911F910F91089537
S113062041E062E082E00E94D30441E063E082E0C2
S11306300E94D30441E064E082E00E94D30441E0DC
S113064062E082E00E94010541E063E082E00E94F2
S1130650010541E064E082E00E94010540E061E0C0
S113066080E00E94D30440E062E080E00E94D30472
S113067040E063E080E00E94D30440E064E080E076
S11306800E94D30441E061E080E00E94010541E062
S113069062E080E00E94010541E063E080E00E94A6
S11306A0010541E064E080E00E94010508954F9255
S11306B05F926F927F928F929F92AF92BF92CF92EE
S11306C0DF92EF92FF920F931F93CF93DF93CDB7F7
S11306D0DEB763970FB6F894DEBF0FBECDBF22E03E
S11306E0298393E09A8384E08B8331E03C832D83D8
S11306F09E838F838CE0E2E6F0E0DE0118960190A1
S11307000D928A95E1F7CE0101964C01A12CB12CF2
S11307103501F40141904F0140E0642D82E00E94D4
S113072001057E01F4E0EF0EF11C00E010E0680129
S1130730F70151907F01652D80E00E944F058111E2
S113074017C0C801880F991FC80ED91E81E090E018
S11307508C0F9D1FC80ED91EF601E60DF71D1781DB
S1130760652D80E00E944F058823D1F3812F13C0AB
S11307700F5F1F4F04301105D1F641E0642D82E074
S11307800E9401059FEFA91AB90AE3E0AE16B1046D
S113079009F0BECF8AEA63960FB6F894DEBF0FBEA7
S11307A0CDBFDF91CF911F910F91FF90EF90DF901C
S11307B0CF90BF90AF909F908F907F906F905F90FD
S11307C04F900895CF93C82F41E065E080E00E94E8
S11307D0010540E066E080E00E9401056C2F81E0A5
S11307E00E943F0541E067E080E00E9401058FE937
S11307F09FE00197F1F700C0000040E067E080E06F
S11308000E940105CF910895CF93C82F40E065E081
S113081080E00E94010540E066E080E00E9401055E
S11308206C2F81E00E943F0541E067E080E00E9478
S113083001058FE99FE00197F1F700C0000040E057
S113084067E080E00E940105CF9108956FEF81E099
S11308500E942F0541E065E080E00E94D30441E05E
S113086066E080E00E94D30441E067E080E00E94FB
S1130870D3042FEF89EF90E0215080409040E1F7BE
S113088000C0000088E30E9404048CE00E94040479
S113089081E00E94040486E00E940404089581E03B
S11308A00E940404089590E4899F600D1124862F0A
S11308B080680E94040408950F931F93CF93FC0152
S11308C08081882359F08F01C0E00E94E203CF5F4A
S11308D0F801EC0FF11D80818111F7CFCF911F91A9
S11308E00F910895CF93DF93CDB7DEB72A970FB654
S11308F0F894DEBF0FBECDBFDC01CB014AE0BE01E0
S11309006F5F7F4F0E94360ACE0101960E945C04FD
S11309102A960FB6F894DEBF0FBECDBFDF91CF91FC
S113092008956AE082E00E941D0680E29EE40E942F
S11309308B060895853B08F084EB682F70E080E017
S113094090E00E943D0921E63BE046EB5BE30E9418
S1130950C90920E030E040E85FE30E942E0820E06F
S113096030E04AE754E40E94C9090E940C097093DC
S1130970770160937601CB010E948E0608953E9A1A
S11309803F983D9A3098319A329A379A089597B1A0
S1130990907E97B997B1892B87B9369A349BFECF4D
S11309A0349A85B10895813049F028F0823049F0B5
S11309B0833051F00BC0EAE3F0E008C0E7E3F0E075
S11309C005C0E4E3F0E002C0E1E3F0E0442369F0B1
S11309D04130B1F4208181E090E002C0880F991F7A
S11309E06A95E2F7822B80830895208181E090E06C
S11309F002C0880F991F6A95E2F78095822380834D
S1130A000895813049F028F0823049F0833051F064
S1130A100BC0EBE3F0E008C0E8E3F0E005C0E5E379
S1130A20F0E002C0E2E3F0E0442369F04130B1F4C5
S1130A30208181E090E002C0880F991F6A95E2F757
S1130A40822B80830895208181E090E002C0880F8A
S1130A50991F6A95E2F780958223808308958130F7
S1130A6041F028F0823039F0833039F008956ABBC0
S1130A70089567BB089564BB089561BB08958130F0
S1130A8041F028F0823039F0833039F008956BBB9F
S1130A90089568BB089565BB089562BB08958130CD
S1130AA081F028F08230B9F08330F9F027C089B39F
S1130AB090E002C0959587956A95E2F7982F91701A
S1130AC01DC086B390E002C0959587956A95E2F7BC
S1130AD0982F917013C083B390E002C095958795C9
S1130AE06A95E2F7982F917009C080B390E002C034
S1130AF0959587956A95E2F7982F9170892F0895B7
S1130B001F920F920FB60F9211242F933F934F937E
S1130B105F936F937F938F939F93AF93BF93EF9361
S1130B20FF93E0917C01F0917D01309709F00995E4
S1130B30FF91EF91BF91AF919F918F917F916F91B1
S1130B405F914F913F912F910F900FBE0F901F9087
S1130B5018951F920F920FB60F9211242F933F9363
S1130B604F935F936F937F938F939F93AF93BF93B1
S1130B70EF93FF93E0917A01F0917B01309709F0B4
S1130B800995FF91EF91BF91AF919F918F917F91C3
S1130B906F915F914F913F912F910F900FBE0F90E6
S1130BA01F9018951F920F920FB60F9211242F9336
S1130BB03F934F935F936F937F938F939F93AF93E1
S1130BC0BF93EF93FF93E0917801F091790130970F
S1130BD009F00995FF91EF91BF91AF919F918F918A
S1130BE07F916F915F914F913F912F910F900FBE25
S1130BF00F901F9018958FB780688FBF08950F933B
S1130C001F938B019C01672B682B692B69F412C01D
S1130C100197F1F74F5F5F4F6F4F7F4F0417150731
S1130C202607370721F406C040E050E0BA018EE5FC
S1130C3091E0EECF1F910F9108958130A1F018F04B
S1130C40823009F132C08FB58E7F8FBD8FB58D7F15
S1130C508FBD8EB5877F8EBD8EB58F7E8EBD89B7D5
S1130C60846089BF22C08FB58E7F8FBD8FB58D7F85
S1130C708FBD8EB588608EBD8EB58F7E8EBD89B7D3
S1130C80806189BF12C08FB58F7B8FBD8FB580689F
S1130C908FBD8FB58E7F8FBD8FB582608FBD8EB5B2
S1130CA088608EBD8EB580618EBDE0E0F0E04DECD5
S1130CB0A1E0B0E0649F812D1124869586958695E8
S1130CC0880F982F990F990F890F962F981B9130A1
S1130CD059F42EB5CD010E2E02C0880F991F0A9427
S1130CE0E2F7822B8EBD0CC09EB59D010E2E02C074
S1130CF0220F331F0A94E2F7822F809589238EBD39
S1130D00649F612D11246695669566953196E3304E
S1130D10F10581F6089597BD86BD08959BBD8ABDF2
S1130D2008959DBD8CBD08951F920F920FB60F922A
S1130D3011242F933F934F935F936F937F938F93DC
S1130D409F93AF93BF93EF93FF93E0918401F0914E
S1130D508501309709F00995FF91EF91BF91AF910B
S1130D609F918F917F916F915F914F913F912F91BF
S1130D700F900FBE0F901F9018951F920F920FB6F1
S1130D800F9211242F933F934F935F936F937F930D
S1130D908F939F93AF93BF93EF93FF93E09182015F
S1130DA0F0918301309709F00995FF91EF91BF917C
S1130DB0AF919F918F917F916F915F914F913F91EF
S1130DC02F910F900FBE0F901F9018951F920F92A6
S1130DD00FB60F9211242F933F934F935F936F930A
S1130DE07F938F939F93AF93BF93EF93FF93E09180
S1130DF08001F0918101309709F00995FF91EF91FD
S1130E00BF91AF919F918F917F916F915F914F911E
S1130E103F912F910F900FBE0F901F9018951F9226
S1130E200F920FB60F9211242F933F934F935F931A
S1130E306F937F938F939F93AF93BF93EF93FF939E
S1130E40E0917E01F0917F01309709F00995FF91BF
S1130E50EF91BF91AF919F918F917F916F915F912E
S1130E604F913F912F910F900FBE0F901F901895A7
S1130E7096E990B909980898882311F0880F82B9E7
S1130E8086B7846086BF089586B7806286BF86B7BA
S1130E90806886BF06B607FEFDCF91B1987F81E0DA
S1130EA0983009F480E0089586B7806286BF86B7DB
S1130EB0806886BF06B607FEFDCF81B1887F80318A
S1130EC011F082E0089580E00895880F83B918989E
S1130ED084E886BF06B607FEFDCF81B1887F8831DE
S1130EE011F083E0089580E00895880F83B9189A7B
S1130EF084E886BF06B607FEFDCF81B1887F8034C3
S1130F0011F084E0089580E0089583B986B780687D
S1130F1086BF06B607FEFDCF81B185E00895FC01CA
S1130F2096B7906496BF96B7906896BF06B607FECC
S1130F30FDCF91B1987F903521F483B1808380E017
S1130F40089586E0089586B7806186BF86B7806875
S1130F5086BF0895529886E880BD83E389B9539A81
S1130F60549A08955D9BFECF5D9A8CB908955F9B5A
S1130F70FECF8CB10895FC011DBC1CBC8FB58E7FC7
S1130F808FBD9FB59D7F9FBD9EB5977F9EBD9EB52E
S1130F909F7E9EBD9EB591609EBD9EB59D7F9EBD6C
S1130FA09EB594609EBD0BC02CB53DB520343C4924
S1130FB030F05F9A8EB5887F8EBD81E008955F9B87
S1130FC0F3CF8CB180831DBC1CBC80E008950F93CB
S1130FD01F93CF93FC018081882359F08F01C0E0D7
S1130FE00E94B207CF5FF801EC0FF11D80818111DF
S1130FF0F7CFCF911F910F9108959093870180931C
S113100086010895579A08951F920F920FB60F9272
S113101011242F933F934F935F936F937F938F93F9
S11310209F93AF93BF93EF93FF93E0918601F09169
S11310308701309709F00995FF91EF91BF91AF9126
S11310409F918F917F916F915F914F913F912F91DC
S11310500F900FBE0F901F9018955058BB27AA27CA
S11310600E9445080C948F090E94810938F00E945F
S1131070880920F039F49F3F19F426F40C947E0972
S11310800EF4E095E7FB0C947809E92F0E94A0097F
S113109058F3BA17620773078407950720F079F4A9
S11310A0A6F50C94C2090EF4E0950B2EBA2FA02DD0
S11310B00B01B90190010C01CA01A0011124FF2701
S11310C0591B99F0593F50F4503E68F11A16F040FC
S11310D0A22F232F342F4427585FF3CF46953795FB
S11310E02795A795F0405395C9F77EF41F16BA0BC0
S11310F0620B730B840BBAF09150A1F0FF0FBB1F6E
S1131100661F771F881FC2F70EC0BA0F621F731FB6
S1131110841F48F4879577956795B795F7959E3F13
S113112008F0B0CF9395880F08F09927EE0F9795A4
S1131130879508950E94AE080C948F090E9488092F
S113114058F00E94810940F029F45F3F29F00C9483
S1131150780951110C94C3090C947E090E94A009CA
S113116068F39923B1F3552391F3951B550BBB27D2
S1131170AA2762177307840738F09F5F5F4F220F17
S1131180331F441FAA1FA9F335D00E2E3AF0E0E80E
S113119032D091505040E695001CCAF72BD0FE2F58
S11311A029D0660F771F881FBB1F261737074807EC
S11311B0AB07B0E809F0BB0B802DBF01FF279358A4
S11311C05F4F3AF09E3F510578F00C9478090C94E7
S11311D0C3095F3FE4F3983ED4F38695779567950A
S11311E0B795F7959F5FC9F7880F911D96958795D9
S11311F097F90895E1E0660F771F881FBB1F6217F8
S113120073078407BA0720F0621B730B840BBA0BB5
S1131210EE1F88F7E09508950E94A80988F09F576B
S113122098F0B92F9927B751B0F0E1F0660F771F06
S1131230881F991F1AF0BA95C9F714C0B13091F0FC
S11312400E94C209B1E008950C94C209672F782F57
S11312508827B85F39F0B93FCCF3869577956795C1
S1131260B395D9F73EF490958095709561957F4F2D
S11312708F4F9F4F0895E89409C097FB3EF49095D3
S11312808095709561957F4F8F4F9F4F9923A9F05B
S1131290F92F96E9BB279395F695879577956795EA
S11312A0B795F111F8CFFAF4BB0F11F460FF1BC02E
S11312B06F5F7F4F8F4F9F4F16C0882311F096E9C1
S11312C011C0772321F09EE8872F762F05C066236F
S11312D071F096E8862F70E060E02AF09A95660F28
S11312E0771F881FDAF7880F9695879597F90895E1
S11312F097F99F6780E870E060E008959FEF80ECC5
S1131300089500240A941616170618060906089567
S113131000240A9412161306140605060895092ECD
S11313200394000C11F4882352F0BB0F40F4BF2B3C
S113133011F460FF04C06F5F7F4F8F4F9F4F08957C
S113134057FD9058440F551F59F05F3F71F0479572
S1131350880F97FB991F61F09F3F79F08795089557
S1131360121613061406551FF2CF4695F1DF08C076
S1131370161617061806991FF1CF86957105610593
S113138008940895E894BB2766277727CB0197F93B
S113139008950E94DC090C948F090E94810938F099
S11313A00E94880920F0952311F00C9478090C947C
S11313B07E0911240C94C3090E94A00970F3959F1F
S11313C0C1F3950F50E0551F629FF001729FBB2738
S11313D0F00DB11D639FAA27F00DB11DAA1F649FD4
S11313E06627B00DA11D661F829F2227B00DA11D87
S11313F0621F739FB00DA11D621F839FA00D611D0D
S1131400221F749F3327A00D611D231F849F600D2D
S1131410211D822F762F6A2F11249F5750409AF056
S1131420F1F088234AF0EE0FFF1FBB1F661F771FE2
S1131430881F91505040A9F79E3F510580F00C94AD
S113144078090C94C3095F3FE4F3983ED4F386957E
S113145077956795B795F795E7959F5FC1F7FE2B4D
S1131460880F911D9695879597F90895BB274A3063
S113147031F4992322F4BDE2909581959F4F0C9409
S1131480420ABB27FB015527AA27880F991FAA1FC9
S1131490A41710F0A41B83955051B9F7A05DAA338B
S11314A008F0A95DA193009779F7B111B193119256
S11314B0CB010C945B0ADC01FC01672F719177234B
S11314C0E1F7329704C07C916D9370836291AE17FB
S10D14D0BF07C8F30895F894FFCF96
S11314DA32000708090405060102030D000C5365CE
S11314EA74206E657720706173733A004552524FC7
S11314FA522021212121004D6178204469676974B1
S113150A73206973203400446F6F72206973206FEB
S113151A70656E656400446F6F7220697320436C52
S113152A6F7365640057726F6E67207061737377A7
S113153A6F7264202100706173732069732075705F
S113154A64617465640046697273742052756E002E
S113155A457870656374656420494E5020466F72FD
S113156A6D61742022202A692A782A78232022206D
S113157A3A0D0023234552524F523A2054696D655D
S113158A204F7574002323494E434F525245435406
S113159A20494E50555420464F524D41540D002374
S11315AA23494E434F525245435420524F4F4D20E4
S11315BA4E756D206F722053746174650D00524F1D
S11315CA4F4D2000204C69676874204973204F4EA0
S11315DA0D00204C69676874204973204F46460DF4
S10515EA0000FB
S9030000FC
