:100000000C942A000C94AB050C94D4050C94FD05BB
:100010000C9447000C9447000C9411070C943A0779
:100020000C9447000C9447000C94E8060C94BF060F
:100030000C9447000C942F080C9447000C94470034
:100040000C9447000C9447000C9447000C94470014
:100050000C94470011241FBECFE5D8E0DEBFCDBF12
:1000600011E0A0E6B0E0E0E3F5E102C005900D92FA
:10007000AE38B107D9F721E0AEE8B1E001C01D927A
:10008000A83AB207E1F70E94B7010C94960A0C94C3
:10009000000080E00E94F20490E0BC01660F771F30
:1000A000660F771F680F791F072E000C880B990BBE
:1000B0000E9468092AE037ED43E250E40E94C50837
:1000C0000E943709633258F041E066E083E00E9405
:1000D0002C0540E067E083E00E942C05089569311B
:1000E00058F040E066E083E00E942C0541E067E0C4
:1000F00083E00E942C05089540E066E083E00E94C2
:100100002C0540E067E083E00E942C050895809173
:10011000A5019091A6018093A7019093A4016091FD
:100120006000709161000E9404036CE271E080E065
:1001300090E00E942A066091600070916100665F05
:100140007F4F8091A4010E9404036CE271E080E083
:1001500090E00E942A060895CF930E948203C82F40
:100160008D3009F074C020919001309191018091FF
:10017000A5019091A6012817390709F05FC00E94D8
:100180007A041092A6011092A5011092910110928A
:10019000900110928F018EE690E00E9487040E94E9
:1001A0008203C82F80918F018530A1F40E947A04C8
:1001B0008CE790E00E94870460E081E00E947E046A
:1001C00087E890E00E94870410928F011092A601A8
:1001D0001092A501CD3049F410928F010E947A044B
:1001E0001092A6011092A501DACFCA3AC1F2CC3022
:1001F00009F486C080918F01811102C00E947A04A7
:100200008AE20E940D0480918F018F5F80938F019D
:100210008091A5019091A6019C01220F331F880FA8
:10022000991F880F991F880F991F820F931F8C0F9A
:10023000911D9093A6018093A501B1CF0E947A04ED
:10024000109291011092900110928F0163C08C3036
:1002500089F50E947A04209190013091910180915A
:10026000A5019091A60128173907C9F480918E0144
:1002700081110BC087E990E00E94870484EB0E9403
:10028000C50481E080938E010EC086EA90E00E9452
:10029000870480E00E94C50410928E0104C085EBA3
:1002A00090E00E94870410929101109290011092A8
:1002B0008F0130C08A3A71F180918F01811102C0A3
:1002C0000E947A048AE20E940D0480918F018F5F60
:1002D00080938F0180919001909191019C01220F58
:1002E000331F880F991F880F991F880F991F820F3E
:1002F000931F8C0F911D90939101809390010AC0E0
:100300000E947A0486EC90E00E94870410928F018C
:100310000E948700CF910895609160007091610004
:1003200087EA91E00E941C036CE271E080E090E0BB
:100330000E942A066091600070916100665F7F4FA5
:1003400084EA91E00E941C036CE271E080E090E09E
:100350000E942A068091A40190E0982F882720917E
:10036000A701822B9093A6018093A5010895CF93B6
:10037000DF931F92CDB7DEB719820E94EA0441E0F5
:1003800066E083E00E94FE0441E067E083E00E94B3
:10039000FE040E9451040E943B0341E065E083E0BB
:1003A0000E94FE040E94BC0480E00E94630765E096
:1003B00070E0CE0101960E941C0389818C31D1F03E
:1003C00086ED90E00E9487048CE1898382ED94E0C1
:1003D0009093A6018093A5010E94870065E070E0DC
:1003E00089810E9404036CE271E080E090E00E9449
:1003F0002A0604C080EE90E00E9487040E948C01CF
:100400000E94D50782E692E00E9428080E942D08EB
:100410000E94260641E065E082E00E94FE0441E081
:1004200066E082E00E94FE0441E067E082E00E9414
:10043000FE040E9426060E942D080E94AC000E9425
:100440004900F7CFCF93DF93C82FD62F0E947A04AD
:10045000C133C9F441E06D2F82E00E942C058DEE7E
:1004600090E00E9487046D2F70E064507109072EA0
:10047000000C880B990B0E949D0483EF90E00E9472
:10048000870481E01CC0C033C9F440E06D2F82E0D6
:100490000E942C058DEE90E00E9487046D2F70E085
:1004A00064507109072E000C880B990B0E949D0463
:1004B0008AEF90E00E94870482E001C083E0DF9130
:1004C000CF910895CF92DF92EF92FF920F931F93F7
:1004D000CF93DF9300D000D000D0CDB7DEB70E941D
:1004E000E2078A3209F081C082E091E00E9412089E
:1004F0008AE20E94DD070E947A048AE20E940D04CB
:100500008E010F5F1F4F6E0187E0C80ED11C78016E
:10051000C8010E94E607813079F48DE00E94DD0772
:1005200085E291E00E9412088DE00E94DD070E94A2
:100530007A040E94BC0459C0F80181918F010E9485
:10054000DD07F70180810E940D0480E090E00E94A9
:10055000BC060C151D05D9F68DE00E94DD078981CA
:10056000893649F48A818A3231F48C818A3219F4CD
:100570008E81833239F087E391E00E9412080E9455
:10058000BC0433C08B81813331F465E08D810E94DE
:100590002202182F0FC0823331F466E08D810E9451
:1005A0002202182F07C0833339F467E08D810E943F
:1005B0002202182F133029F481E591E00E941208DD
:1005C00012C08DEE90E00E9412088B810E94DD0720
:1005D000113029F480E791E00E94120804C08EE7F0
:1005E00091E00E9412080E94BC0426960FB6F8946F
:1005F000DEBF0FBECDBFDF91CF911F910F91FF9056
:10060000EF90DF90CF9008951F93CF93DF93C82F83
:10061000D62F172F0E946F07812F80650E949007A9
:100620008D2F0E94B0078C2F0E94B0070E94CE072A
:10063000DF91CF911F9108950F931F93CF93DF9375
:100640008C01D62FC72FC0650E946F078C2F0E9488
:1006500090078D2F0E94B0070E947F078C2F0E9469
:10066000A007C8010E94BA070E94CE07DF91CF9170
:100670001F910F91089541E062E082E00E94FE0424
:1006800041E063E082E00E94FE0441E064E082E039
:100690000E94FE0441E062E082E00E942C0541E0FD
:1006A00063E082E00E942C0541E064E082E00E9469
:1006B0002C0540E061E080E00E94FE0440E062E042
:1006C00080E00E94FE0440E063E080E00E94FE04BF
:1006D00040E064E080E00E94FE0441E061E080E0F0
:1006E0000E942C0541E062E080E00E942C0541E080
:1006F00063E080E00E942C0541E064E080E00E941D
:100700002C0508954F925F926F927F928F929F92E5
:10071000AF92BF92CF92DF92EF92FF920F931F930F
:10072000CF93DF93CDB7DEB763970FB6F894DEBFF4
:100730000FBECDBF22E0298393E09A8384E08B83B0
:1007400031E03C832D839E838F838CE0E2E6F0E0F2
:10075000DE01189601900D928A95E1F7CE0101967F
:100760004C01A12CB12C3501F40141904F0140E026
:10077000642D82E00E942C057E01F4E0EF0EF11C56
:1007800000E010E06801F70151907F01652D80E0E5
:100790000E947A05811117C0C801880F991FC80EE1
:1007A000D91E81E090E08C0F9D1FC80ED91EF60166
:1007B000E60DF71D1781652D80E00E947A058823DC
:1007C000D1F3812F13C00F5F1F4F04301105D1F6F5
:1007D00041E0642D82E00E942C059FEFA91AB90A1E
:1007E000E3E0AE16B10409F0BECF8AEA63960FB615
:1007F000F894DEBF0FBECDBFDF91CF911F910F9157
:10080000FF90EF90DF90CF90BF90AF909F908F9030
:100810007F906F905F904F900895CF93C82F41E0E5
:1008200065E080E00E942C0540E066E080E00E94E8
:100830002C056C2F81E00E946A0541E067E080E0B2
:100840000E942C058FE99FE00197F1F700C000009E
:1008500040E067E080E00E942C05CF910895CF939F
:10086000C82F40E065E080E00E942C0540E066E093
:1008700080E00E942C056C2F81E00E946A0541E017
:1008800067E080E00E942C058FE99FE00197F1F777
:1008900000C0000040E067E080E00E942C05CF919E
:1008A00008956FEF81E00E945A0541E065E080E025
:1008B0000E94FE0441E066E080E00E94FE0441E008
:1008C00067E080E00E94FE042FEF89EF90E0215066
:1008D00080409040E1F700C0000088E30E942F04B0
:1008E0008CE00E942F0481E00E942F0486E00E9489
:1008F0002F04089581E00E942F04089590E4899FB9
:10090000600D1124862F80680E942F0408950F9394
:100910001F93CF93FC018081882359F08F01C0E0A1
:100920000E940D04CF5FF801EC0FF11D8081811151
:10093000F7CFCF911F910F910895CF93DF93CDB74C
:10094000DEB72A970FB6F894DEBF0FBECDBFDC012D
:10095000CB014AE0BE016F5F7F4F0E94610ACE016A
:1009600001960E9487042A960FB6F894DEBF0FBE48
:10097000CDBFDF91CF9108956AE082E00E944806E2
:1009800080E29EE40E94B6060895853B08F084EB61
:10099000682F70E080E090E00E94680921E63BE06B
:1009A00046EB5BE30E94F40920E030E040E85FE3BF
:1009B0000E94590820E030E04AE754E40E94F4091C
:1009C0000E9437097093930160939201CB010E94BA
:1009D000B90608953E9A3F983D9A3098319A329AD6
:1009E000379A089597B1907E97B997B1892B87B9B7
:1009F000369A349BFECF349A85B10895813049F000
:100A000028F0823049F0833051F00BC0EAE3F0E087
:100A100008C0E7E3F0E005C0E4E3F0E002C0E1E392
:100A2000F0E0442369F04130B1F4208181E090E0AE
:100A300002C0880F991F6A95E2F7822B8083089580
:100A4000208181E090E002C0880F991F6A95E2F74B
:100A50008095822380830895813049F028F0823088
:100A600049F0833051F00BC0EBE3F0E008C0E8E35D
:100A7000F0E005C0E5E3F0E002C0E2E3F0E044238B
:100A800069F04130B1F4208181E090E002C0880F2C
:100A9000991F6A95E2F7822B80830895208181E077
:100AA00090E002C0880F991F6A95E2F78095822333
:100AB00080830895813041F028F0823039F083300E
:100AC00039F008956ABB089567BB089564BB089523
:100AD00061BB0895813041F028F0823039F08330D5
:100AE00039F008956BBB089568BB089565BB089500
:100AF00062BB0895813081F028F08230B9F08330F4
:100B0000F9F027C089B390E002C0959587956A9562
:100B1000E2F7982F91701DC086B390E002C09595C2
:100B200087956A95E2F7982F917013C083B390E090
:100B300002C0959587956A95E2F7982F917009C044
:100B400080B390E002C0959587956A95E2F7982F5B
:100B50009170892F08951F920F920FB60F92112452
:100B60002F933F934F935F936F937F938F939F93B5
:100B7000AF93BF93EF93FF93E0919801F0919901A8
:100B8000309709F00995FF91EF91BF91AF919F9137
:100B90008F917F916F915F914F913F912F910F9026
:100BA0000FBE0F901F9018951F920F920FB60F92C5
:100BB00011242F933F934F935F936F937F938F9362
:100BC0009F93AF93BF93EF93FF93E0919601F091C2
:100BD0009701309709F00995FF91EF91BF91AF917F
:100BE0009F918F917F916F915F914F913F912F9145
:100BF0000F900FBE0F901F9018951F920F920FB677
:100C00000F9211242F933F934F935F936F937F9392
:100C10008F939F93AF93BF93EF93FF93E0919401D2
:100C2000F0919501309709F00995FF91EF91BF91EF
:100C3000AF919F918F917F916F915F914F913F9174
:100C40002F910F900FBE0F901F9018958FB780684F
:100C50008FBF08950F931F938B019C01672B682B07
:100C6000692B69F412C00197F1F74F5F5F4F6F4F27
:100C70007F4F041715072607370721F406C040E009
:100C800050E0BA018EE591E0EECF1F910F910895EB
:100C90008130A1F018F0823009F132C08FB58E7F1B
:100CA0008FBD8FB58D7F8FBD8EB5877F8EBD8EB585
:100CB0008F7E8EBD89B7846089BF22C08FB58E7F3D
:100CC0008FBD8FB58D7F8FBD8EB588608EBD8EB583
:100CD0008F7E8EBD89B7806189BF12C08FB58F7B33
:100CE0008FBD8FB580688FBD8FB58E7F8FBD8FB55F
:100CF00082608FBD8EB588608EBD8EB580618EBDE1
:100D0000E0E0F0E04DECA1E0B0E0649F812D112423
:100D1000869586958695880F982F990F990F890F3C
:100D2000962F981B913059F42EB5CD010E2E02C08E
:100D3000880F991F0A94E2F7822B8EBD0CC09EB5D6
:100D40009D010E2E02C0220F331F0A94E2F7822F5C
:100D5000809589238EBD649F612D112466956695CB
:100D600066953196E330F10581F6089597BD86BD0D
:100D700008959BBD8ABD08959DBD8CBD08951F92A9
:100D80000F920FB60F9211242F933F934F935F93BF
:100D90006F937F938F939F93AF93BF93EF93FF9343
:100DA000E091A001F091A101309709F00995FF9120
:100DB000EF91BF91AF919F918F917F916F915F91D3
:100DC0004F913F912F910F900FBE0F901F9018954C
:100DD0001F920F920FB60F9211242F933F934F93B0
:100DE0005F936F937F938F939F93AF93BF93EF9393
:100DF000FF93E0919E01F0919F01309709F00995D2
:100E0000FF91EF91BF91AF919F918F917F916F91E2
:100E10005F914F913F912F910F900FBE0F901F90B8
:100E200018951F920F920FB60F9211242F933F9394
:100E30004F935F936F937F938F939F93AF93BF93E2
:100E4000EF93FF93E0919C01F0919D01309709F0A1
:100E50000995FF91EF91BF91AF919F918F917F91F4
:100E60006F915F914F913F912F910F900FBE0F9017
:100E70001F9018951F920F920FB60F9211242F9367
:100E80003F934F935F936F937F938F939F93AF9312
:100E9000BF93EF93FF93E0919A01F0919B013097FC
:100EA00009F00995FF91EF91BF91AF919F918F91BB
:100EB0007F916F915F914F913F912F910F900FBE56
:100EC0000F901F90189596E990B909980898882373
:100ED00011F0880F82B986B7846086BF089586B7FF
:100EE000806286BF86B7806886BF06B607FEFDCFE4
:100EF00091B1987F81E0983009F480E0089586B739
:100F0000806286BF86B7806886BF06B607FEFDCFC3
:100F100081B1887F803111F082E0089580E00895EA
:100F2000880F83B9189884E886BF06B607FEFDCF00
:100F300081B1887F883111F083E0089580E00895C1
:100F4000880F83B9189A84E886BF06B607FEFDCFDE
:100F500081B1887F803411F084E0089580E00895A5
:100F600083B986B7806886BF06B607FEFDCF81B11C
:100F700085E00895FC0196B7906496BF96B7906897
:100F800096BF06B607FEFDCF91B1987F903521F44C
:100F900083B1808380E0089586E0089586B78061FC
:100FA00086BF86B7806886BF0895529886E880BD60
:100FB00083E389B9539A549A08955D9BFECF5D9A55
:100FC0008CB908955F9BFECF8CB10895FC011DBCC8
:100FD0001CBC8FB58E7F8FBD9FB59D7F9FBD9EB57D
:100FE000977F9EBD9EB59F7E9EBD9EB591609EBD26
:100FF0009EB59D7F9EBD9EB594609EBD0BC02CB5D9
:101000003DB520343C4930F05F9A8EB5887F8EBD67
:1010100081E008955F9BF3CF8CB180831DBC1CBC25
:1010200080E008950F931F93CF93FC018081882364
:1010300059F08F01C0E00E94DD07CF5FF801EC0F8F
:10104000F11D80818111F7CFCF911F910F910895EC
:101050009093A3018093A2010895579A08951F9237
:101060000F920FB60F9211242F933F934F935F93DC
:101070006F937F938F939F93AF93BF93EF93FF9360
:10108000E091A201F091A301309709F00995FF9139
:10109000EF91BF91AF919F918F917F916F915F91F0
:1010A0004F913F912F910F900FBE0F901F90189569
:1010B0005058BB27AA270E9470080C94BA090E94B6
:1010C000AC0938F00E94B30920F039F49F3F19F4BD
:1010D00026F40C94A9090EF4E095E7FB0C94A309FF
:1010E000E92F0E94CB0958F3BA17620773078407E8
:1010F000950720F079F4A6F50C94ED090EF4E0952F
:101100000B2EBA2FA02D0B01B90190010C01CA01C1
:10111000A0011124FF27591B99F0593F50F4503E6C
:1011200068F11A16F040A22F232F342F4427585F5E
:10113000F3CF469537952795A795F0405395C9F776
:101140007EF41F16BA0B620B730B840BBAF091502E
:10115000A1F0FF0FBB1F661F771F881FC2F70EC0CD
:10116000BA0F621F731F841F48F4879577956795A0
:10117000B795F7959E3F08F0B0CF9395880F08F08C
:101180009927EE0F9795879508950E94D9080C949A
:10119000BA090E94B30958F00E94AC0940F029F442
:1011A0005F3F29F00C94A30951110C94EE090C94A3
:1011B000A9090E94CB0968F39923B1F3552391F350
:1011C000951B550BBB27AA2762177307840738F0B6
:1011D0009F5F5F4F220F331F441FAA1FA9F335D013
:1011E0000E2E3AF0E0E832D091505040E695001CC7
:1011F000CAF72BD0FE2F29D0660F771F881FBB1F81
:10120000261737074807AB07B0E809F0BB0B802D5E
:10121000BF01FF2793585F4F3AF09E3F510578F08A
:101220000C94A3090C94EE095F3FE4F3983ED4F3C9
:10123000869577956795B795F7959F5FC9F7880F5E
:10124000911D9695879597F90895E1E0660F771FB0
:10125000881FBB1F621773078407BA0720F0621B41
:10126000730B840BBA0BEE1F88F7E09508950E946C
:10127000D30988F09F5798F0B92F9927B751B0F04C
:10128000E1F0660F771F881F991F1AF0BA95C9F70A
:1012900014C0B13091F00E94ED09B1E008950C94B2
:1012A000ED09672F782F8827B85F39F0B93FCCF365
:1012B000869577956795B395D9F73EF49095809587
:1012C000709561957F4F8F4F9F4F0895E89409C0A7
:1012D00097FB3EF490958095709561957F4F8F4F69
:1012E0009F4F9923A9F0F92F96E9BB279395F6957F
:1012F000879577956795B795F111F8CFFAF4BB0FFD
:1013000011F460FF1BC06F5F7F4F8F4F9F4F16C060
:10131000882311F096E911C0772321F09EE8872FEA
:10132000762F05C0662371F096E8862F70E060E0A6
:101330002AF09A95660F771F881FDAF7880F96951F
:10134000879597F9089597F99F6780E870E060E0C6
:1013500008959FEF80EC089500240A94161617064E
:1013600018060906089500240A9412161306140696
:1013700005060895092E0394000C11F4882352F0F9
:10138000BB0F40F4BF2B11F460FF04C06F5F7F4FB1
:101390008F4F9F4F089557FD9058440F551F59F098
:1013A0005F3F71F04795880F97FB991F61F09F3F52
:1013B00079F087950895121613061406551FF2CF7B
:1013C0004695F1DF08C0161617061806991FF1CFCB
:1013D00086957105610508940895E894BB276627F2
:1013E0007727CB0197F908950E94070A0C94BA0950
:1013F0000E94AC0938F00E94B30920F0952311F047
:101400000C94A3090C94A90911240C94EE090E94D0
:10141000CB0970F3959FC1F3950F50E0551F629F64
:10142000F001729FBB27F00DB11D639FAA27F00D3D
:10143000B11DAA1F649F6627B00DA11D661F829F64
:101440002227B00DA11D621F739FB00DA11D621F49
:10145000839FA00D611D221F749F3327A00D611D66
:10146000231F849F600D211D822F762F6A2F112448
:101470009F5750409AF0F1F088234AF0EE0FFF1F7B
:10148000BB1F661F771F881F91505040A9F79E3FD2
:10149000510580F00C94A3090C94EE095F3FE4F32E
:1014A000983ED4F3869577956795B795F795E79528
:1014B0009F5FC1F7FE2B880F911D9695879597F931
:1014C0000895BB274A3031F4992322F4BDE2909568
:1014D00081959F4F0C946D0ABB27FB015527AA27C6
:1014E000880F991FAA1FA41710F0A41B83955051B1
:1014F000B9F7A05DAA3308F0A95DA193009779F729
:10150000B111B1931192CB010C94860ADC01FC015C
:10151000672F71917723E1F7329704C07C916D9327
:1015200070836291AE17BF07C8F30895F894FFCF98
:1015300032000708090405060102030D000C53657B
:1015400074206E657720706173733A004552524F74
:10155000522021212121004D61782044696769745E
:1015600073206973203400446F6F72206973206F99
:1015700070656E656400446F6F7220697320436C00
:101580006F7365640057726F6E6720706173737755
:101590006F7264202100706173732069732075700D
:1015A00064617465640046697273742052756E00DC
:1015B00053797374656D206973204F6E00524F4FDD
:1015C0004D2000206973204F4E00206973204F4644
:1015D0004600457870656374656420494E50204626
:1015E0006F726D61742022202A692A782A7823205C
:1015F00022203A0D0023234552524F523A2054697B
:101600006D65204F7574002323494E434F52524558
:10161000435420494E50555420464F524D41540D8D
:10162000002323494E434F525245435420524F4FBB
:101630004D204E756D206F722053746174650D00DE
:10164000204C69676874204973204F4E0D00204C70
:0E16500069676874204973204F46460D0000FC
:00000001FF
